{
  "_format": "hh-sol-artifact-1",
  "contractName": "ERC20TimeLockedTrustfund",
  "sourceName": "contracts/ERC20TimelockedTrustfund.sol",
  "abi": [
    {
      "inputs": [
        {
          "internalType": "address",
          "name": "_beneficiary",
          "type": "address"
        },
        {
          "internalType": "address",
          "name": "_admin",
          "type": "address"
        },
        {
          "internalType": "address",
          "name": "_reserve",
          "type": "address"
        }
      ],
      "stateMutability": "nonpayable",
      "type": "constructor"
    },
    {
      "inputs": [
        {
          "internalType": "string",
          "name": "description",
          "type": "string"
        }
      ],
      "name": "LowFunds",
      "type": "error"
    },
    {
      "inputs": [
        {
          "internalType": "bool",
          "name": "isAdmin",
          "type": "bool"
        },
        {
          "internalType": "bool",
          "name": "isOwner",
          "type": "bool"
        },
        {
          "internalType": "bool",
          "name": "isReserve",
          "type": "bool"
        }
      ],
      "name": "OnlyAdmins",
      "type": "error"
    },
    {
      "inputs": [
        {
          "internalType": "string",
          "name": "description",
          "type": "string"
        }
      ],
      "name": "OnlyOwners",
      "type": "error"
    },
    {
      "anonymous": false,
      "inputs": [
        {
          "indexed": false,
          "internalType": "uint256",
          "name": "amount",
          "type": "uint256"
        },
        {
          "indexed": false,
          "internalType": "address",
          "name": "sender",
          "type": "address"
        },
        {
          "indexed": false,
          "internalType": "string",
          "name": "tokenName",
          "type": "string"
        }
      ],
      "name": "ERC20Deposit",
      "type": "event"
    },
    {
      "anonymous": false,
      "inputs": [
        {
          "indexed": false,
          "internalType": "address",
          "name": "beneficiary",
          "type": "address"
        },
        {
          "indexed": false,
          "internalType": "address",
          "name": "admin",
          "type": "address"
        },
        {
          "indexed": false,
          "internalType": "address",
          "name": "reserve",
          "type": "address"
        },
        {
          "indexed": false,
          "internalType": "uint256",
          "name": "duration",
          "type": "uint256"
        },
        {
          "indexed": false,
          "internalType": "uint256",
          "name": "endTime",
          "type": "uint256"
        }
      ],
      "name": "InitiatedTrustFund",
      "type": "event"
    },
    {
      "anonymous": false,
      "inputs": [
        {
          "indexed": true,
          "internalType": "address",
          "name": "previousOwner",
          "type": "address"
        },
        {
          "indexed": true,
          "internalType": "address",
          "name": "newOwner",
          "type": "address"
        }
      ],
      "name": "OwnershipTransferred",
      "type": "event"
    },
    {
      "anonymous": false,
      "inputs": [
        {
          "indexed": false,
          "internalType": "address",
          "name": "beneficiary",
          "type": "address"
        }
      ],
      "name": "Withdrawn",
      "type": "event"
    },
    {
      "anonymous": false,
      "inputs": [
        {
          "indexed": false,
          "internalType": "uint256",
          "name": "amount",
          "type": "uint256"
        },
        {
          "indexed": true,
          "internalType": "address",
          "name": "depositedTo",
          "type": "address"
        }
      ],
      "name": "depositDone",
      "type": "event"
    },
    {
      "inputs": [],
      "name": "ContractBalance",
      "outputs": [
        {
          "internalType": "uint256",
          "name": "",
          "type": "uint256"
        }
      ],
      "stateMutability": "view",
      "type": "function"
    },
    {
      "inputs": [
        {
          "internalType": "address",
          "name": "_token",
          "type": "address"
        },
        {
          "internalType": "uint256",
          "name": "_amount",
          "type": "uint256"
        }
      ],
      "name": "ERC20deposit",
      "outputs": [],
      "stateMutability": "payable",
      "type": "function"
    },
    {
      "inputs": [],
      "name": "ETHdeposit",
      "outputs": [
        {
          "internalType": "uint256",
          "name": "",
          "type": "uint256"
        }
      ],
      "stateMutability": "payable",
      "type": "function"
    },
    {
      "inputs": [],
      "name": "admin",
      "outputs": [
        {
          "internalType": "address",
          "name": "",
          "type": "address"
        }
      ],
      "stateMutability": "view",
      "type": "function"
    },
    {
      "inputs": [],
      "name": "approveWithdraw",
      "outputs": [
        {
          "internalType": "bool",
          "name": "approved",
          "type": "bool"
        }
      ],
      "stateMutability": "nonpayable",
      "type": "function"
    },
    {
      "inputs": [],
      "name": "beneficiary",
      "outputs": [
        {
          "internalType": "address",
          "name": "",
          "type": "address"
        }
      ],
      "stateMutability": "view",
      "type": "function"
    },
    {
      "inputs": [],
      "name": "destroyContract",
      "outputs": [],
      "stateMutability": "payable",
      "type": "function"
    },
    {
      "inputs": [],
      "name": "endTime",
      "outputs": [
        {
          "internalType": "uint256",
          "name": "",
          "type": "uint256"
        }
      ],
      "stateMutability": "view",
      "type": "function"
    },
    {
      "inputs": [],
      "name": "getBalance",
      "outputs": [
        {
          "internalType": "uint256",
          "name": "",
          "type": "uint256"
        }
      ],
      "stateMutability": "view",
      "type": "function"
    },
    {
      "inputs": [
        {
          "internalType": "contract IERC20",
          "name": "_token",
          "type": "address"
        }
      ],
      "name": "getERC20Balance",
      "outputs": [
        {
          "internalType": "uint256",
          "name": "",
          "type": "uint256"
        }
      ],
      "stateMutability": "view",
      "type": "function"
    },
    {
      "inputs": [],
      "name": "getTokens",
      "outputs": [
        {
          "internalType": "contract IERC20[]",
          "name": "",
          "type": "address[]"
        }
      ],
      "stateMutability": "view",
      "type": "function"
    },
    {
      "inputs": [],
      "name": "isAdmin",
      "outputs": [
        {
          "internalType": "bool",
          "name": "",
          "type": "bool"
        }
      ],
      "stateMutability": "view",
      "type": "function"
    },
    {
      "inputs": [],
      "name": "isOwner",
      "outputs": [
        {
          "internalType": "bool",
          "name": "",
          "type": "bool"
        }
      ],
      "stateMutability": "view",
      "type": "function"
    },
    {
      "inputs": [],
      "name": "isReserve",
      "outputs": [
        {
          "internalType": "bool",
          "name": "",
          "type": "bool"
        }
      ],
      "stateMutability": "view",
      "type": "function"
    },
    {
      "inputs": [],
      "name": "owner",
      "outputs": [
        {
          "internalType": "address",
          "name": "",
          "type": "address"
        }
      ],
      "stateMutability": "view",
      "type": "function"
    },
    {
      "inputs": [],
      "name": "renounceOwnership",
      "outputs": [],
      "stateMutability": "nonpayable",
      "type": "function"
    },
    {
      "inputs": [],
      "name": "reserve",
      "outputs": [
        {
          "internalType": "address",
          "name": "",
          "type": "address"
        }
      ],
      "stateMutability": "view",
      "type": "function"
    },
    {
      "inputs": [
        {
          "internalType": "address",
          "name": "newOwner",
          "type": "address"
        }
      ],
      "name": "transferOwnership",
      "outputs": [],
      "stateMutability": "nonpayable",
      "type": "function"
    }
  ],
  "bytecode": "0x60806040523480156200001157600080fd5b5060405162002362380380620023628339818101604052810190620000379190620002cd565b620000576200004b620001ea60201b60201c565b620001f260201b60201c565b82600360006101000a81548173ffffffffffffffffffffffffffffffffffffffff021916908373ffffffffffffffffffffffffffffffffffffffff16021790555081600160006101000a81548173ffffffffffffffffffffffffffffffffffffffff021916908373ffffffffffffffffffffffffffffffffffffffff16021790555080600260006101000a81548173ffffffffffffffffffffffffffffffffffffffff021916908373ffffffffffffffffffffffffffffffffffffffff16021790555060006312cf346c90508042620001319190620003a8565b6005819055507f4b814d3a83ef2fa21a334b3e22ff0fd5b13484e79eda35d49e16139277b3423e600360009054906101000a900473ffffffffffffffffffffffffffffffffffffffff16600160009054906101000a900473ffffffffffffffffffffffffffffffffffffffff16600260009054906101000a900473ffffffffffffffffffffffffffffffffffffffff1684600554604051620001d89594939291906200034b565b60405180910390a15050505062000491565b600033905090565b60008060009054906101000a900473ffffffffffffffffffffffffffffffffffffffff169050816000806101000a81548173ffffffffffffffffffffffffffffffffffffffff021916908373ffffffffffffffffffffffffffffffffffffffff1602179055508173ffffffffffffffffffffffffffffffffffffffff168173ffffffffffffffffffffffffffffffffffffffff167f8be0079c531659141344cd1fd0a4f28419497f9722a3daafe3b4186f6b6457e060405160405180910390a35050565b600081519050620002c78162000477565b92915050565b600080600060608486031215620002e957620002e862000472565b5b6000620002f986828701620002b6565b93505060206200030c86828701620002b6565b92505060406200031f86828701620002b6565b9150509250925092565b620003348162000405565b82525050565b620003458162000439565b82525050565b600060a08201905062000362600083018862000329565b62000371602083018762000329565b62000380604083018662000329565b6200038f60608301856200033a565b6200039e60808301846200033a565b9695505050505050565b6000620003b58262000439565b9150620003c28362000439565b9250827fffffffffffffffffffffffffffffffffffffffffffffffffffffffffffffffff03821115620003fa57620003f962000443565b5b828201905092915050565b6000620004128262000419565b9050919050565b600073ffffffffffffffffffffffffffffffffffffffff82169050919050565b6000819050919050565b7f4e487b7100000000000000000000000000000000000000000000000000000000600052601160045260246000fd5b600080fd5b620004828162000405565b81146200048e57600080fd5b50565b611ec180620004a16000396000f3fe6080604052600436106101095760003560e01c80638f32d59b11610095578063b6db75a011610064578063b6db75a0146102fe578063b9b8230114610329578063cd3293de14610354578063f2fde38b1461037f578063f851a440146103a857610109565b80638f32d59b1461024f578063aa6ca8081461027a578063ae5dbc9d146102a5578063b588d225146102c157610109565b80633b668059116100dc5780633b668059146101995780635dfe4488146101c4578063715018a6146101e2578063820ddb3d146101f95780638da5cb5b1461022457610109565b8063092a5cce1461010e57806312065fe0146101185780633197cbb61461014357806338af3eed1461016e575b600080fd5b6101166103d3565b005b34801561012457600080fd5b5061012d6104e7565b60405161013a919061190d565b60405180910390f35b34801561014f57600080fd5b506101586104f1565b604051610165919061190d565b60405180910390f35b34801561017a57600080fd5b506101836104f7565b6040516101909190611775565b60405180910390f35b3480156101a557600080fd5b506101ae61051d565b6040516101bb919061190d565b60405180910390f35b6101cc610523565b6040516101d9919061190d565b60405180910390f35b3480156101ee57600080fd5b506101f76105d7565b005b34801561020557600080fd5b5061020e61065f565b60405161021b9190611812565b60405180910390f35b34801561023057600080fd5b50610239610672565b6040516102469190611775565b60405180910390f35b34801561025b57600080fd5b5061026461069b565b6040516102719190611812565b60405180910390f35b34801561028657600080fd5b5061028f6106ae565b60405161029c91906117f0565b60405180910390f35b6102bf60048036038101906102ba9190611485565b61073c565b005b3480156102cd57600080fd5b506102e860048036038101906102e391906114f2565b6108fc565b6040516102f5919061190d565b60405180910390f35b34801561030a57600080fd5b5061031361098e565b6040516103209190611812565b60405180910390f35b34801561033557600080fd5b5061033e6109a1565b60405161034b9190611812565b60405180910390f35b34801561036057600080fd5b50610369610e29565b6040516103769190611775565b60405180910390f35b34801561038b57600080fd5b506103a660048036038101906103a19190611458565b610e4f565b005b3480156103b457600080fd5b506103bd610f47565b6040516103ca9190611775565b60405180910390f35b6103db610f6d565b73ffffffffffffffffffffffffffffffffffffffff166103f9610672565b73ffffffffffffffffffffffffffffffffffffffff161461044f576040517f08c379a0000000000000000000000000000000000000000000000000000000008152600401610446906118cd565b60405180910390fd5b6000610459610672565b90503373ffffffffffffffffffffffffffffffffffffffff168173ffffffffffffffffffffffffffffffffffffffff16146104c9576040517fbec8fe240000000000000000000000000000000000000000000000000000000081526004016104c09061182d565b60405180910390fd5b60008190508073ffffffffffffffffffffffffffffffffffffffff16ff5b6000600454905090565b60055481565b600360009054906101000a900473ffffffffffffffffffffffffffffffffffffffff1681565b60045481565b600080341415610568576040517f08c379a000000000000000000000000000000000000000000000000000000000815260040161055f906118ed565b60405180910390fd5b346004600082825461057a9190611a11565b925050819055503373ffffffffffffffffffffffffffffffffffffffff167f55b8d2fc1aaf27628691a3336b517d7b40bee36ba595a24e893d1e872afb82d1346040516105c7919061190d565b60405180910390a2600454905090565b6105df610f6d565b73ffffffffffffffffffffffffffffffffffffffff166105fd610672565b73ffffffffffffffffffffffffffffffffffffffff1614610653576040517f08c379a000000000000000000000000000000000000000000000000000000000815260040161064a906118cd565b60405180910390fd5b61065d6000610f75565b565b600660019054906101000a900460ff1681565b60008060009054906101000a900473ffffffffffffffffffffffffffffffffffffffff16905090565b600660029054906101000a900460ff1681565b6060600780548060200260200160405190810160405280929190818152602001828054801561073257602002820191906000526020600020905b8160009054906101000a900473ffffffffffffffffffffffffffffffffffffffff1673ffffffffffffffffffffffffffffffffffffffff16815260200190600101908083116106e8575b5050505050905090565b60008290508073ffffffffffffffffffffffffffffffffffffffff166323b872dd3330856040518463ffffffff1660e01b815260040161077e93929190611790565b602060405180830381600087803b15801561079857600080fd5b505af11580156107ac573d6000803e3d6000fd5b505050506040513d601f19601f820116820180604052508101906107d091906114c5565b5060008173ffffffffffffffffffffffffffffffffffffffff166306fdde036040518163ffffffff1660e01b815260040160006040518083038186803b15801561081957600080fd5b505afa15801561082d573d6000803e3d6000fd5b505050506040513d6000823e3d601f19601f82011682018060405250810190610856919061151f565b90506007829080600181540180825580915050600190039060005260206000200160009091909190916101000a81548173ffffffffffffffffffffffffffffffffffffffff021916908373ffffffffffffffffffffffffffffffffffffffff1602179055507ffe1fd4374ce88a466bde84534d1a887d32d41987066e506c05ff633a27fef72b8333836040516108ee93929190611928565b60405180910390a150505050565b60008173ffffffffffffffffffffffffffffffffffffffff166370a08231306040518263ffffffff1660e01b81526004016109379190611775565b60206040518083038186803b15801561094f57600080fd5b505afa158015610963573d6000803e3d6000fd5b505050506040513d601f19601f820116820180604052508101906109879190611568565b9050919050565b600660009054906101000a900460ff1681565b60003373ffffffffffffffffffffffffffffffffffffffff16600360009054906101000a900473ffffffffffffffffffffffffffffffffffffffff1673ffffffffffffffffffffffffffffffffffffffff161480610a4c57503373ffffffffffffffffffffffffffffffffffffffff16600160009054906101000a900473ffffffffffffffffffffffffffffffffffffffff1673ffffffffffffffffffffffffffffffffffffffff16145b80610a8957503373ffffffffffffffffffffffffffffffffffffffff16610a71610672565b73ffffffffffffffffffffffffffffffffffffffff16145b80610ae157503373ffffffffffffffffffffffffffffffffffffffff16600260009054906101000a900473ffffffffffffffffffffffffffffffffffffffff1673ffffffffffffffffffffffffffffffffffffffff16145b610b20576040517f08c379a0000000000000000000000000000000000000000000000000000000008152600401610b179061188d565b60405180910390fd5b600160009054906101000a900473ffffffffffffffffffffffffffffffffffffffff1673ffffffffffffffffffffffffffffffffffffffff163373ffffffffffffffffffffffffffffffffffffffff161415610b92576001600660006101000a81548160ff0219169083151502179055505b610b9a610672565b73ffffffffffffffffffffffffffffffffffffffff163373ffffffffffffffffffffffffffffffffffffffff161415610be9576001600660026101000a81548160ff0219169083151502179055505b600260009054906101000a900473ffffffffffffffffffffffffffffffffffffffff1673ffffffffffffffffffffffffffffffffffffffff163373ffffffffffffffffffffffffffffffffffffffff161415610c5b576001600660016101000a81548160ff0219169083151502179055505b600660009054906101000a900460ff168015610c835750600660029054906101000a900460ff165b80610cb25750600660009054906101000a900460ff168015610cb15750600660019054906101000a900460ff165b5b80610ce15750600660029054906101000a900460ff168015610ce05750600660019054906101000a900460ff165b5b15610d3657610cee611039565b610d2d576040517f08c379a0000000000000000000000000000000000000000000000000000000008152600401610d24906118ad565b60405180910390fd5b60019050610e26565b3373ffffffffffffffffffffffffffffffffffffffff16600360009054906101000a900473ffffffffffffffffffffffffffffffffffffffff1673ffffffffffffffffffffffffffffffffffffffff161415610e2157426005541115610dd1576040517f08c379a0000000000000000000000000000000000000000000000000000000008152600401610dc89061186d565b60405180910390fd5b610dd9611039565b610e18576040517f08c379a0000000000000000000000000000000000000000000000000000000008152600401610e0f906118ad565b60405180910390fd5b60019050610e26565b600090505b90565b600260009054906101000a900473ffffffffffffffffffffffffffffffffffffffff1681565b610e57610f6d565b73ffffffffffffffffffffffffffffffffffffffff16610e75610672565b73ffffffffffffffffffffffffffffffffffffffff1614610ecb576040517f08c379a0000000000000000000000000000000000000000000000000000000008152600401610ec2906118cd565b60405180910390fd5b600073ffffffffffffffffffffffffffffffffffffffff168173ffffffffffffffffffffffffffffffffffffffff161415610f3b576040517f08c379a0000000000000000000000000000000000000000000000000000000008152600401610f329061184d565b60405180910390fd5b610f4481610f75565b50565b600160009054906101000a900473ffffffffffffffffffffffffffffffffffffffff1681565b600033905090565b60008060009054906101000a900473ffffffffffffffffffffffffffffffffffffffff169050816000806101000a81548173ffffffffffffffffffffffffffffffffffffffff021916908373ffffffffffffffffffffffffffffffffffffffff1602179055508173ffffffffffffffffffffffffffffffffffffffff168173ffffffffffffffffffffffffffffffffffffffff167f8be0079c531659141344cd1fd0a4f28419497f9722a3daafe3b4186f6b6457e060405160405180910390a35050565b600080600660006101000a81548160ff0219169083151502179055506000600660016101000a81548160ff0219169083151502179055506000600660026101000a81548160ff02191690831515021790555060005b600780549050811015611272576000600782815481106110b1576110b0611bf5565b5b9060005260206000200160009054906101000a900473ffffffffffffffffffffffffffffffffffffffff1673ffffffffffffffffffffffffffffffffffffffff166370a08231306040518263ffffffff1660e01b81526004016111149190611775565b60206040518083038186803b15801561112c57600080fd5b505afa158015611140573d6000803e3d6000fd5b505050506040513d601f19601f820116820180604052508101906111649190611568565b9050600081111561125e576007828154811061118357611182611bf5565b5b9060005260206000200160009054906101000a900473ffffffffffffffffffffffffffffffffffffffff1673ffffffffffffffffffffffffffffffffffffffff1663a9059cbb600360009054906101000a900473ffffffffffffffffffffffffffffffffffffffff16836040518363ffffffff1660e01b815260040161120a9291906117c7565b602060405180830381600087803b15801561122457600080fd5b505af1158015611238573d6000803e3d6000fd5b505050506040513d601f19601f8201168201806040525081019061125c91906114c5565b505b50808061126a90611b7d565b91505061108e565b5061127b6112dc565b507ff45a04d08a70caa7eb4b747571305559ad9fdf4a093afd41506b35c8a306fa94600360009054906101000a900473ffffffffffffffffffffffffffffffffffffffff166040516112cd9190611775565b60405180910390a16001905090565b60008060045410156112ed57600080fd5b6000600454905080600460008282546113069190611a67565b92505081905550600360009054906101000a900473ffffffffffffffffffffffffffffffffffffffff1673ffffffffffffffffffffffffffffffffffffffff166108fc829081150290604051600060405180830381858888f19350505050158015611375573d6000803e3d6000fd5b5060045491505090565b600061139261138d8461198b565b611966565b9050828152602081018484840111156113ae576113ad611c58565b5b6113b9848285611b19565b509392505050565b6000813590506113d081611e2f565b92915050565b6000815190506113e581611e46565b92915050565b6000813590506113fa81611e5d565b92915050565b600082601f83011261141557611414611c53565b5b815161142584826020860161137f565b91505092915050565b60008135905061143d81611e74565b92915050565b60008151905061145281611e74565b92915050565b60006020828403121561146e5761146d611c62565b5b600061147c848285016113c1565b91505092915050565b6000806040838503121561149c5761149b611c62565b5b60006114aa858286016113c1565b92505060206114bb8582860161142e565b9150509250929050565b6000602082840312156114db576114da611c62565b5b60006114e9848285016113d6565b91505092915050565b60006020828403121561150857611507611c62565b5b6000611516848285016113eb565b91505092915050565b60006020828403121561153557611534611c62565b5b600082015167ffffffffffffffff81111561155357611552611c5d565b5b61155f84828501611400565b91505092915050565b60006020828403121561157e5761157d611c62565b5b600061158c84828501611443565b91505092915050565b60006115a18383611629565b60208301905092915050565b6115b681611a9b565b82525050565b60006115c7826119cc565b6115d181856119ef565b93506115dc836119bc565b8060005b8381101561160d5781516115f48882611595565b97506115ff836119e2565b9250506001810190506115e0565b5085935050505092915050565b61162381611aad565b82525050565b61163281611af5565b82525050565b6000611643826119d7565b61164d8185611a00565b935061165d818560208601611b19565b61166681611c67565b840191505092915050565b600061167e603383611a00565b915061168982611c78565b604082019050919050565b60006116a1602683611a00565b91506116ac82611cc7565b604082019050919050565b60006116c4603383611a00565b91506116cf82611d16565b604082019050919050565b60006116e7603883611a00565b91506116f282611d65565b604082019050919050565b600061170a601083611a00565b915061171582611db4565b602082019050919050565b600061172d602083611a00565b915061173882611ddd565b602082019050919050565b6000611750601583611a00565b915061175b82611e06565b602082019050919050565b61176f81611aeb565b82525050565b600060208201905061178a60008301846115ad565b92915050565b60006060820190506117a560008301866115ad565b6117b260208301856115ad565b6117bf6040830184611766565b949350505050565b60006040820190506117dc60008301856115ad565b6117e96020830184611766565b9392505050565b6000602082019050818103600083015261180a81846115bc565b905092915050565b6000602082019050611827600083018461161a565b92915050565b6000602082019050818103600083015261184681611671565b9050919050565b6000602082019050818103600083015261186681611694565b9050919050565b60006020820190508181036000830152611886816116b7565b9050919050565b600060208201905081810360008301526118a6816116da565b9050919050565b600060208201905081810360008301526118c6816116fd565b9050919050565b600060208201905081810360008301526118e681611720565b9050919050565b6000602082019050818103600083015261190681611743565b9050919050565b60006020820190506119226000830184611766565b92915050565b600060608201905061193d6000830186611766565b61194a60208301856115ad565b818103604083015261195c8184611638565b9050949350505050565b6000611970611981565b905061197c8282611b4c565b919050565b6000604051905090565b600067ffffffffffffffff8211156119a6576119a5611c24565b5b6119af82611c67565b9050602081019050919050565b6000819050602082019050919050565b600081519050919050565b600081519050919050565b6000602082019050919050565b600082825260208201905092915050565b600082825260208201905092915050565b6000611a1c82611aeb565b9150611a2783611aeb565b9250827fffffffffffffffffffffffffffffffffffffffffffffffffffffffffffffffff03821115611a5c57611a5b611bc6565b5b828201905092915050565b6000611a7282611aeb565b9150611a7d83611aeb565b925082821015611a9057611a8f611bc6565b5b828203905092915050565b6000611aa682611acb565b9050919050565b60008115159050919050565b6000611ac482611a9b565b9050919050565b600073ffffffffffffffffffffffffffffffffffffffff82169050919050565b6000819050919050565b6000611b0082611b07565b9050919050565b6000611b1282611acb565b9050919050565b60005b83811015611b37578082015181840152602081019050611b1c565b83811115611b46576000848401525b50505050565b611b5582611c67565b810181811067ffffffffffffffff82111715611b7457611b73611c24565b5b80604052505050565b6000611b8882611aeb565b91507fffffffffffffffffffffffffffffffffffffffffffffffffffffffffffffffff821415611bbb57611bba611bc6565b5b600182019050919050565b7f4e487b7100000000000000000000000000000000000000000000000000000000600052601160045260246000fd5b7f4e487b7100000000000000000000000000000000000000000000000000000000600052603260045260246000fd5b7f4e487b7100000000000000000000000000000000000000000000000000000000600052604160045260246000fd5b600080fd5b600080fd5b600080fd5b600080fd5b6000601f19601f8301169050919050565b7f547275737446756e643a204f6e6c7920746865204f574e45522063616e20657860008201527f65637574652073656c6664657374727563742100000000000000000000000000602082015250565b7f4f776e61626c653a206e6577206f776e657220697320746865207a65726f206160008201527f6464726573730000000000000000000000000000000000000000000000000000602082015250565b7f547275737446756e643a20547275737446756e64206973206e6f74206f70656e60008201527f20666f7220776974686472617773207965742100000000000000000000000000602082015250565b7f547275737446756e643a204f6e6c7920616e2076616c6964206164647265737360008201527f2063616e2063616c6c20746869732066756e6374696f6e210000000000000000602082015250565b7f5769746864726177206661696c65642100000000000000000000000000000000600082015250565b7f4f776e61626c653a2063616c6c6572206973206e6f7420746865206f776e6572600082015250565b7f43616e27742073656e64207a65726f2076616c75650000000000000000000000600082015250565b611e3881611a9b565b8114611e4357600080fd5b50565b611e4f81611aad565b8114611e5a57600080fd5b50565b611e6681611ab9565b8114611e7157600080fd5b50565b611e7d81611aeb565b8114611e8857600080fd5b5056fea264697066735822122014eef2d8c39bcad8c9e3c423c333f0e44b9a3eceb8ace77e5e0b6083c563acb464736f6c63430008060033",
  "linkReferences": {},
  "deployedLinkReferences": {}
}