{
  "_format": "hh-sol-artifact-1",
  "contractName": "ERC20TimeLockedTrustfund",
  "sourceName": "contracts/ERC20TimelockedTrustfund.sol",
  "abi": [
    {
      "inputs": [
        {
          "internalType": "address",
          "name": "_beneficiary",
          "type": "address"
        },
        {
          "internalType": "address",
          "name": "_admin",
          "type": "address"
        },
        {
          "internalType": "address",
          "name": "_reserve",
          "type": "address"
        }
      ],
      "stateMutability": "nonpayable",
      "type": "constructor"
    },
    {
      "inputs": [
        {
          "internalType": "string",
          "name": "description",
          "type": "string"
        }
      ],
      "name": "LowFunds",
      "type": "error"
    },
    {
      "inputs": [
        {
          "internalType": "bool",
          "name": "isAdmin",
          "type": "bool"
        },
        {
          "internalType": "bool",
          "name": "isOwner",
          "type": "bool"
        },
        {
          "internalType": "bool",
          "name": "isReserve",
          "type": "bool"
        }
      ],
      "name": "OnlyAdmins",
      "type": "error"
    },
    {
      "inputs": [
        {
          "internalType": "string",
          "name": "description",
          "type": "string"
        }
      ],
      "name": "OnlyOwners",
      "type": "error"
    },
    {
      "anonymous": false,
      "inputs": [
        {
          "indexed": false,
          "internalType": "uint256",
          "name": "amount",
          "type": "uint256"
        },
        {
          "indexed": false,
          "internalType": "address",
          "name": "sender",
          "type": "address"
        },
        {
          "indexed": false,
          "internalType": "string",
          "name": "tokenName",
          "type": "string"
        }
      ],
      "name": "ERC20Deposit",
      "type": "event"
    },
    {
      "anonymous": false,
      "inputs": [
        {
          "indexed": false,
          "internalType": "address",
          "name": "beneficiary",
          "type": "address"
        },
        {
          "indexed": false,
          "internalType": "address",
          "name": "admin",
          "type": "address"
        },
        {
          "indexed": false,
          "internalType": "address",
          "name": "reserve",
          "type": "address"
        },
        {
          "indexed": false,
          "internalType": "uint256",
          "name": "Duration",
          "type": "uint256"
        },
        {
          "indexed": false,
          "internalType": "uint256",
          "name": "EndTime",
          "type": "uint256"
        }
      ],
      "name": "InitiatedTrustFund",
      "type": "event"
    },
    {
      "anonymous": false,
      "inputs": [
        {
          "indexed": true,
          "internalType": "address",
          "name": "previousOwner",
          "type": "address"
        },
        {
          "indexed": true,
          "internalType": "address",
          "name": "newOwner",
          "type": "address"
        }
      ],
      "name": "OwnershipTransferred",
      "type": "event"
    },
    {
      "anonymous": false,
      "inputs": [
        {
          "indexed": false,
          "internalType": "address",
          "name": "beneficiary",
          "type": "address"
        },
        {
          "indexed": false,
          "internalType": "uint256",
          "name": "time",
          "type": "uint256"
        }
      ],
      "name": "Withdrawn",
      "type": "event"
    },
    {
      "anonymous": false,
      "inputs": [
        {
          "indexed": false,
          "internalType": "uint256",
          "name": "amount",
          "type": "uint256"
        },
        {
          "indexed": true,
          "internalType": "address",
          "name": "depositedTo",
          "type": "address"
        }
      ],
      "name": "depositDone",
      "type": "event"
    },
    {
      "inputs": [],
      "name": "ContractBalance",
      "outputs": [
        {
          "internalType": "uint256",
          "name": "",
          "type": "uint256"
        }
      ],
      "stateMutability": "view",
      "type": "function"
    },
    {
      "inputs": [
        {
          "internalType": "address",
          "name": "_token",
          "type": "address"
        },
        {
          "internalType": "uint256",
          "name": "_amount",
          "type": "uint256"
        }
      ],
      "name": "ERC20deposit",
      "outputs": [],
      "stateMutability": "payable",
      "type": "function"
    },
    {
      "inputs": [],
      "name": "ETHdeposit",
      "outputs": [
        {
          "internalType": "uint256",
          "name": "",
          "type": "uint256"
        }
      ],
      "stateMutability": "payable",
      "type": "function"
    },
    {
      "inputs": [],
      "name": "ETHwithdraw",
      "outputs": [
        {
          "internalType": "uint256",
          "name": "amount",
          "type": "uint256"
        }
      ],
      "stateMutability": "nonpayable",
      "type": "function"
    },
    {
      "inputs": [],
      "name": "EndTime",
      "outputs": [
        {
          "internalType": "uint256",
          "name": "",
          "type": "uint256"
        }
      ],
      "stateMutability": "view",
      "type": "function"
    },
    {
      "inputs": [],
      "name": "admin",
      "outputs": [
        {
          "internalType": "address",
          "name": "",
          "type": "address"
        }
      ],
      "stateMutability": "view",
      "type": "function"
    },
    {
      "inputs": [],
      "name": "approveWithdraw",
      "outputs": [
        {
          "internalType": "bool",
          "name": "approved",
          "type": "bool"
        }
      ],
      "stateMutability": "nonpayable",
      "type": "function"
    },
    {
      "inputs": [],
      "name": "beneficiary",
      "outputs": [
        {
          "internalType": "address",
          "name": "",
          "type": "address"
        }
      ],
      "stateMutability": "view",
      "type": "function"
    },
    {
      "inputs": [],
      "name": "destroyContract",
      "outputs": [],
      "stateMutability": "payable",
      "type": "function"
    },
    {
      "inputs": [],
      "name": "getBalance",
      "outputs": [
        {
          "internalType": "uint256",
          "name": "",
          "type": "uint256"
        }
      ],
      "stateMutability": "view",
      "type": "function"
    },
    {
      "inputs": [
        {
          "internalType": "contract IERC20",
          "name": "_token",
          "type": "address"
        }
      ],
      "name": "getERC20Balance",
      "outputs": [
        {
          "internalType": "uint256",
          "name": "",
          "type": "uint256"
        }
      ],
      "stateMutability": "view",
      "type": "function"
    },
    {
      "inputs": [],
      "name": "getTokens",
      "outputs": [
        {
          "internalType": "contract IERC20[]",
          "name": "",
          "type": "address[]"
        }
      ],
      "stateMutability": "view",
      "type": "function"
    },
    {
      "inputs": [],
      "name": "isAdmin",
      "outputs": [
        {
          "internalType": "bool",
          "name": "",
          "type": "bool"
        }
      ],
      "stateMutability": "view",
      "type": "function"
    },
    {
      "inputs": [],
      "name": "isOwner",
      "outputs": [
        {
          "internalType": "bool",
          "name": "",
          "type": "bool"
        }
      ],
      "stateMutability": "view",
      "type": "function"
    },
    {
      "inputs": [],
      "name": "isReserve",
      "outputs": [
        {
          "internalType": "bool",
          "name": "",
          "type": "bool"
        }
      ],
      "stateMutability": "view",
      "type": "function"
    },
    {
      "inputs": [],
      "name": "owner",
      "outputs": [
        {
          "internalType": "address",
          "name": "",
          "type": "address"
        }
      ],
      "stateMutability": "view",
      "type": "function"
    },
    {
      "inputs": [],
      "name": "renounceOwnership",
      "outputs": [],
      "stateMutability": "nonpayable",
      "type": "function"
    },
    {
      "inputs": [],
      "name": "reserve",
      "outputs": [
        {
          "internalType": "address",
          "name": "",
          "type": "address"
        }
      ],
      "stateMutability": "view",
      "type": "function"
    },
    {
      "inputs": [
        {
          "internalType": "address",
          "name": "newOwner",
          "type": "address"
        }
      ],
      "name": "transferOwnership",
      "outputs": [],
      "stateMutability": "nonpayable",
      "type": "function"
    }
  ],
  "bytecode": "0x60806040523480156200001157600080fd5b506040516200229b3803806200229b8339818101604052810190620000379190620002cd565b620000576200004b620001ea60201b60201c565b620001f260201b60201c565b82600360006101000a81548173ffffffffffffffffffffffffffffffffffffffff021916908373ffffffffffffffffffffffffffffffffffffffff16021790555081600160006101000a81548173ffffffffffffffffffffffffffffffffffffffff021916908373ffffffffffffffffffffffffffffffffffffffff16021790555080600260006101000a81548173ffffffffffffffffffffffffffffffffffffffff021916908373ffffffffffffffffffffffffffffffffffffffff16021790555060006312cf346c90508042620001319190620003a8565b6005819055507f4b814d3a83ef2fa21a334b3e22ff0fd5b13484e79eda35d49e16139277b3423e600360009054906101000a900473ffffffffffffffffffffffffffffffffffffffff16600160009054906101000a900473ffffffffffffffffffffffffffffffffffffffff16600260009054906101000a900473ffffffffffffffffffffffffffffffffffffffff1684600554604051620001d89594939291906200034b565b60405180910390a15050505062000491565b600033905090565b60008060009054906101000a900473ffffffffffffffffffffffffffffffffffffffff169050816000806101000a81548173ffffffffffffffffffffffffffffffffffffffff021916908373ffffffffffffffffffffffffffffffffffffffff1602179055508173ffffffffffffffffffffffffffffffffffffffff168173ffffffffffffffffffffffffffffffffffffffff167f8be0079c531659141344cd1fd0a4f28419497f9722a3daafe3b4186f6b6457e060405160405180910390a35050565b600081519050620002c78162000477565b92915050565b600080600060608486031215620002e957620002e862000472565b5b6000620002f986828701620002b6565b93505060206200030c86828701620002b6565b92505060406200031f86828701620002b6565b9150509250925092565b620003348162000405565b82525050565b620003458162000439565b82525050565b600060a08201905062000362600083018862000329565b62000371602083018762000329565b62000380604083018662000329565b6200038f60608301856200033a565b6200039e60808301846200033a565b9695505050505050565b6000620003b58262000439565b9150620003c28362000439565b9250827fffffffffffffffffffffffffffffffffffffffffffffffffffffffffffffffff03821115620003fa57620003f962000443565b5b828201905092915050565b6000620004128262000419565b9050919050565b600073ffffffffffffffffffffffffffffffffffffffff82169050919050565b6000819050919050565b7f4e487b7100000000000000000000000000000000000000000000000000000000600052601160045260246000fd5b600080fd5b620004828162000405565b81146200048e57600080fd5b50565b611dfa80620004a16000396000f3fe6080604052600436106101145760003560e01c80638f32d59b116100a0578063b6db75a011610064578063b6db75a014610334578063b9b823011461035f578063cd3293de1461038a578063f2fde38b146103b5578063f851a440146103de57610114565b80638f32d59b1461025a578063aa6ca80814610285578063ae5dbc9d146102b0578063b42df3ed146102cc578063b588d225146102f757610114565b80633b668059116100e75780633b668059146101a45780635dfe4488146101cf578063715018a6146101ed578063820ddb3d146102045780638da5cb5b1461022f57610114565b8063092a5cce1461011957806312065fe014610123578063333609781461014e57806338af3eed14610179575b600080fd5b610121610409565b005b34801561012f57600080fd5b5061013861051d565b6040516101459190611872565b60405180910390f35b34801561015a57600080fd5b50610163610527565b6040516101709190611872565b60405180910390f35b34801561018557600080fd5b5061018e61052d565b60405161019b919061171a565b60405180910390f35b3480156101b057600080fd5b506101b9610553565b6040516101c69190611872565b60405180910390f35b6101d7610559565b6040516101e49190611872565b60405180910390f35b3480156101f957600080fd5b506102026105ca565b005b34801561021057600080fd5b50610219610652565b60405161022691906117b7565b60405180910390f35b34801561023b57600080fd5b50610244610665565b604051610251919061171a565b60405180910390f35b34801561026657600080fd5b5061026f61068e565b60405161027c91906117b7565b60405180910390f35b34801561029157600080fd5b5061029a6106a1565b6040516102a79190611795565b60405180910390f35b6102ca60048036038101906102c59190611470565b61072f565b005b3480156102d857600080fd5b506102e16108ef565b6040516102ee9190611872565b60405180910390f35b34801561030357600080fd5b5061031e600480360381019061031991906114dd565b610ab8565b60405161032b9190611872565b60405180910390f35b34801561034057600080fd5b50610349610b4a565b60405161035691906117b7565b60405180910390f35b34801561036b57600080fd5b50610374610b5d565b60405161038191906117b7565b60405180910390f35b34801561039657600080fd5b5061039f610eca565b6040516103ac919061171a565b60405180910390f35b3480156103c157600080fd5b506103dc60048036038101906103d79190611443565b610ef0565b005b3480156103ea57600080fd5b506103f3610fe8565b604051610400919061171a565b60405180910390f35b61041161100e565b73ffffffffffffffffffffffffffffffffffffffff1661042f610665565b73ffffffffffffffffffffffffffffffffffffffff1614610485576040517f08c379a000000000000000000000000000000000000000000000000000000000815260040161047c90611852565b60405180910390fd5b600061048f610665565b90503373ffffffffffffffffffffffffffffffffffffffff168173ffffffffffffffffffffffffffffffffffffffff16146104ff576040517fbec8fe240000000000000000000000000000000000000000000000000000000081526004016104f6906117d2565b60405180910390fd5b60008190508073ffffffffffffffffffffffffffffffffffffffff16ff5b6000600454905090565b60055481565b600360009054906101000a900473ffffffffffffffffffffffffffffffffffffffff1681565b60045481565b6000346004600082825461056d9190611976565b925050819055503373ffffffffffffffffffffffffffffffffffffffff167f55b8d2fc1aaf27628691a3336b517d7b40bee36ba595a24e893d1e872afb82d1346040516105ba9190611872565b60405180910390a2600454905090565b6105d261100e565b73ffffffffffffffffffffffffffffffffffffffff166105f0610665565b73ffffffffffffffffffffffffffffffffffffffff1614610646576040517f08c379a000000000000000000000000000000000000000000000000000000000815260040161063d90611852565b60405180910390fd5b6106506000611016565b565b600660019054906101000a900460ff1681565b60008060009054906101000a900473ffffffffffffffffffffffffffffffffffffffff16905090565b600660029054906101000a900460ff1681565b6060600780548060200260200160405190810160405280929190818152602001828054801561072557602002820191906000526020600020905b8160009054906101000a900473ffffffffffffffffffffffffffffffffffffffff1673ffffffffffffffffffffffffffffffffffffffff16815260200190600101908083116106db575b5050505050905090565b60008290508073ffffffffffffffffffffffffffffffffffffffff166323b872dd3330856040518463ffffffff1660e01b815260040161077193929190611735565b602060405180830381600087803b15801561078b57600080fd5b505af115801561079f573d6000803e3d6000fd5b505050506040513d601f19601f820116820180604052508101906107c391906114b0565b5060008173ffffffffffffffffffffffffffffffffffffffff166306fdde036040518163ffffffff1660e01b815260040160006040518083038186803b15801561080c57600080fd5b505afa158015610820573d6000803e3d6000fd5b505050506040513d6000823e3d601f19601f82011682018060405250810190610849919061150a565b90506007829080600181540180825580915050600190039060005260206000200160009091909190916101000a81548173ffffffffffffffffffffffffffffffffffffffff021916908373ffffffffffffffffffffffffffffffffffffffff1602179055507ffe1fd4374ce88a466bde84534d1a887d32d41987066e506c05ff633a27fef72b8333836040516108e19392919061188d565b60405180910390a150505050565b60003373ffffffffffffffffffffffffffffffffffffffff16600160009054906101000a900473ffffffffffffffffffffffffffffffffffffffff1673ffffffffffffffffffffffffffffffffffffffff16148061097f57503373ffffffffffffffffffffffffffffffffffffffff16610967610665565b73ffffffffffffffffffffffffffffffffffffffff16145b806109d757503373ffffffffffffffffffffffffffffffffffffffff16600260009054906101000a900473ffffffffffffffffffffffffffffffffffffffff1673ffffffffffffffffffffffffffffffffffffffff16145b610a16576040517f08c379a0000000000000000000000000000000000000000000000000000000008152600401610a0d90611832565b60405180910390fd5b60006004541015610a2657600080fd5b600060045490508060046000828254610a3f91906119cc565b92505081905550600360009054906101000a900473ffffffffffffffffffffffffffffffffffffffff1673ffffffffffffffffffffffffffffffffffffffff166108fc829081150290604051600060405180830381858888f19350505050158015610aae573d6000803e3d6000fd5b5060045491505090565b60008173ffffffffffffffffffffffffffffffffffffffff166370a08231306040518263ffffffff1660e01b8152600401610af3919061171a565b60206040518083038186803b158015610b0b57600080fd5b505afa158015610b1f573d6000803e3d6000fd5b505050506040513d601f19601f82011682018060405250810190610b439190611553565b9050919050565b600660009054906101000a900460ff1681565b60003373ffffffffffffffffffffffffffffffffffffffff16600160009054906101000a900473ffffffffffffffffffffffffffffffffffffffff1673ffffffffffffffffffffffffffffffffffffffff161480610bed57503373ffffffffffffffffffffffffffffffffffffffff16610bd5610665565b73ffffffffffffffffffffffffffffffffffffffff16145b80610c4557503373ffffffffffffffffffffffffffffffffffffffff16600260009054906101000a900473ffffffffffffffffffffffffffffffffffffffff1673ffffffffffffffffffffffffffffffffffffffff16145b610c84576040517f08c379a0000000000000000000000000000000000000000000000000000000008152600401610c7b90611832565b60405180910390fd5b600160009054906101000a900473ffffffffffffffffffffffffffffffffffffffff1673ffffffffffffffffffffffffffffffffffffffff163373ffffffffffffffffffffffffffffffffffffffff161415610cf6576001600660006101000a81548160ff0219169083151502179055505b610cfe610665565b73ffffffffffffffffffffffffffffffffffffffff163373ffffffffffffffffffffffffffffffffffffffff161415610d4d576001600660026101000a81548160ff0219169083151502179055505b600260009054906101000a900473ffffffffffffffffffffffffffffffffffffffff1673ffffffffffffffffffffffffffffffffffffffff163373ffffffffffffffffffffffffffffffffffffffff161415610dbf576001600660016101000a81548160ff0219169083151502179055505b600660009054906101000a900460ff168015610de75750600660029054906101000a900460ff165b80610e165750600660009054906101000a900460ff168015610e155750600660019054906101000a900460ff165b5b80610e455750600660029054906101000a900460ff168015610e445750600660019054906101000a900460ff165b5b15610e5b57610e526110da565b60019050610ec7565b3373ffffffffffffffffffffffffffffffffffffffff16600360009054906101000a900473ffffffffffffffffffffffffffffffffffffffff1673ffffffffffffffffffffffffffffffffffffffff161415610ec257610eb96110da565b60019050610ec7565b600090505b90565b600260009054906101000a900473ffffffffffffffffffffffffffffffffffffffff1681565b610ef861100e565b73ffffffffffffffffffffffffffffffffffffffff16610f16610665565b73ffffffffffffffffffffffffffffffffffffffff1614610f6c576040517f08c379a0000000000000000000000000000000000000000000000000000000008152600401610f6390611852565b60405180910390fd5b600073ffffffffffffffffffffffffffffffffffffffff168173ffffffffffffffffffffffffffffffffffffffff161415610fdc576040517f08c379a0000000000000000000000000000000000000000000000000000000008152600401610fd3906117f2565b60405180910390fd5b610fe581611016565b50565b600160009054906101000a900473ffffffffffffffffffffffffffffffffffffffff1681565b600033905090565b60008060009054906101000a900473ffffffffffffffffffffffffffffffffffffffff169050816000806101000a81548173ffffffffffffffffffffffffffffffffffffffff021916908373ffffffffffffffffffffffffffffffffffffffff1602179055508173ffffffffffffffffffffffffffffffffffffffff168173ffffffffffffffffffffffffffffffffffffffff167f8be0079c531659141344cd1fd0a4f28419497f9722a3daafe3b4186f6b6457e060405160405180910390a35050565b42600554111561111f576040517f08c379a000000000000000000000000000000000000000000000000000000000815260040161111690611812565b60405180910390fd5b600042905060005b60078054905081101561130b5760006007828154811061114a57611149611b5a565b5b9060005260206000200160009054906101000a900473ffffffffffffffffffffffffffffffffffffffff1673ffffffffffffffffffffffffffffffffffffffff166370a08231306040518263ffffffff1660e01b81526004016111ad919061171a565b60206040518083038186803b1580156111c557600080fd5b505afa1580156111d9573d6000803e3d6000fd5b505050506040513d601f19601f820116820180604052508101906111fd9190611553565b905060008111156112f7576007828154811061121c5761121b611b5a565b5b9060005260206000200160009054906101000a900473ffffffffffffffffffffffffffffffffffffffff1673ffffffffffffffffffffffffffffffffffffffff1663a9059cbb600360009054906101000a900473ffffffffffffffffffffffffffffffffffffffff16836040518363ffffffff1660e01b81526004016112a392919061176c565b602060405180830381600087803b1580156112bd57600080fd5b505af11580156112d1573d6000803e3d6000fd5b505050506040513d601f19601f820116820180604052508101906112f591906114b0565b505b50808061130390611ae2565b915050611127565b507f7084f5476618d8e60b11ef0d7d3f06914655adb8793e28ff7f018d4c76d505d5600360009054906101000a900473ffffffffffffffffffffffffffffffffffffffff168260405161135f92919061176c565b60405180910390a150565b600061137d611378846118f0565b6118cb565b90508281526020810184848401111561139957611398611bbd565b5b6113a4848285611a7e565b509392505050565b6000813590506113bb81611d68565b92915050565b6000815190506113d081611d7f565b92915050565b6000813590506113e581611d96565b92915050565b600082601f830112611400576113ff611bb8565b5b815161141084826020860161136a565b91505092915050565b60008135905061142881611dad565b92915050565b60008151905061143d81611dad565b92915050565b60006020828403121561145957611458611bc7565b5b6000611467848285016113ac565b91505092915050565b6000806040838503121561148757611486611bc7565b5b6000611495858286016113ac565b92505060206114a685828601611419565b9150509250929050565b6000602082840312156114c6576114c5611bc7565b5b60006114d4848285016113c1565b91505092915050565b6000602082840312156114f3576114f2611bc7565b5b6000611501848285016113d6565b91505092915050565b6000602082840312156115205761151f611bc7565b5b600082015167ffffffffffffffff81111561153e5761153d611bc2565b5b61154a848285016113eb565b91505092915050565b60006020828403121561156957611568611bc7565b5b60006115778482850161142e565b91505092915050565b600061158c8383611614565b60208301905092915050565b6115a181611a00565b82525050565b60006115b282611931565b6115bc8185611954565b93506115c783611921565b8060005b838110156115f85781516115df8882611580565b97506115ea83611947565b9250506001810190506115cb565b5085935050505092915050565b61160e81611a12565b82525050565b61161d81611a5a565b82525050565b600061162e8261193c565b6116388185611965565b9350611648818560208601611a7e565b61165181611bcc565b840191505092915050565b6000611669603383611965565b915061167482611bdd565b604082019050919050565b600061168c602683611965565b915061169782611c2c565b604082019050919050565b60006116af604d83611965565b91506116ba82611c7b565b606082019050919050565b60006116d2603083611965565b91506116dd82611cf0565b604082019050919050565b60006116f5602083611965565b915061170082611d3f565b602082019050919050565b61171481611a50565b82525050565b600060208201905061172f6000830184611598565b92915050565b600060608201905061174a6000830186611598565b6117576020830185611598565b611764604083018461170b565b949350505050565b60006040820190506117816000830185611598565b61178e602083018461170b565b9392505050565b600060208201905081810360008301526117af81846115a7565b905092915050565b60006020820190506117cc6000830184611605565b92915050565b600060208201905081810360008301526117eb8161165c565b9050919050565b6000602082019050818103600083015261180b8161167f565b9050919050565b6000602082019050818103600083015261182b816116a2565b9050919050565b6000602082019050818103600083015261184b816116c5565b9050919050565b6000602082019050818103600083015261186b816116e8565b9050919050565b6000602082019050611887600083018461170b565b92915050565b60006060820190506118a2600083018661170b565b6118af6020830185611598565b81810360408301526118c18184611623565b9050949350505050565b60006118d56118e6565b90506118e18282611ab1565b919050565b6000604051905090565b600067ffffffffffffffff82111561190b5761190a611b89565b5b61191482611bcc565b9050602081019050919050565b6000819050602082019050919050565b600081519050919050565b600081519050919050565b6000602082019050919050565b600082825260208201905092915050565b600082825260208201905092915050565b600061198182611a50565b915061198c83611a50565b9250827fffffffffffffffffffffffffffffffffffffffffffffffffffffffffffffffff038211156119c1576119c0611b2b565b5b828201905092915050565b60006119d782611a50565b91506119e283611a50565b9250828210156119f5576119f4611b2b565b5b828203905092915050565b6000611a0b82611a30565b9050919050565b60008115159050919050565b6000611a2982611a00565b9050919050565b600073ffffffffffffffffffffffffffffffffffffffff82169050919050565b6000819050919050565b6000611a6582611a6c565b9050919050565b6000611a7782611a30565b9050919050565b60005b83811015611a9c578082015181840152602081019050611a81565b83811115611aab576000848401525b50505050565b611aba82611bcc565b810181811067ffffffffffffffff82111715611ad957611ad8611b89565b5b80604052505050565b6000611aed82611a50565b91507fffffffffffffffffffffffffffffffffffffffffffffffffffffffffffffffff821415611b2057611b1f611b2b565b5b600182019050919050565b7f4e487b7100000000000000000000000000000000000000000000000000000000600052601160045260246000fd5b7f4e487b7100000000000000000000000000000000000000000000000000000000600052603260045260246000fd5b7f4e487b7100000000000000000000000000000000000000000000000000000000600052604160045260246000fd5b600080fd5b600080fd5b600080fd5b600080fd5b6000601f19601f8301169050919050565b7f547275737446756e643a204f6e6c7920746865204f574e45522063616e20657860008201527f65637574652073656c6664657374727563742100000000000000000000000000602082015250565b7f4f776e61626c653a206e6577206f776e657220697320746865207a65726f206160008201527f6464726573730000000000000000000000000000000000000000000000000000602082015250565b7f547275737446756e643a20547275737446756e64206973206e6f74206f70656e60008201527f20666f7220776974686472617773207965742120506c6561736520636865636b60208201527f2074686520454e4454494d452e00000000000000000000000000000000000000604082015250565b7f547275737446756e643a204f6e6c7920616e2061646d696e2063616e2063616c60008201527f6c20746869732066756e6374696f6e2100000000000000000000000000000000602082015250565b7f4f776e61626c653a2063616c6c6572206973206e6f7420746865206f776e6572600082015250565b611d7181611a00565b8114611d7c57600080fd5b50565b611d8881611a12565b8114611d9357600080fd5b50565b611d9f81611a1e565b8114611daa57600080fd5b50565b611db681611a50565b8114611dc157600080fd5b5056fea26469706673582212206e78942923a4c00cc8e37ec89bfefc05a5bb06f865a955e6b8659976f9b5756764736f6c63430008060033",
  "linkReferences": {},
  "deployedLinkReferences": {}
}