{
  "_format": "hh-sol-artifact-1",
  "contractName": "ERC20TimeLockedTrustfund",
  "sourceName": "contracts/ERC20TimelockedTrustfund.sol",
  "abi": [
    {
      "inputs": [
        {
          "internalType": "address",
          "name": "_beneficiary",
          "type": "address"
        },
        {
          "internalType": "address",
          "name": "_admin",
          "type": "address"
        },
        {
          "internalType": "address",
          "name": "_reserve",
          "type": "address"
        }
      ],
      "stateMutability": "nonpayable",
      "type": "constructor"
    },
    {
      "inputs": [
        {
          "internalType": "string",
          "name": "description",
          "type": "string"
        }
      ],
      "name": "LowFunds",
      "type": "error"
    },
    {
      "inputs": [
        {
          "internalType": "bool",
          "name": "isAdmin",
          "type": "bool"
        },
        {
          "internalType": "bool",
          "name": "isOwner",
          "type": "bool"
        },
        {
          "internalType": "bool",
          "name": "isReserve",
          "type": "bool"
        }
      ],
      "name": "OnlyAdmins",
      "type": "error"
    },
    {
      "inputs": [
        {
          "internalType": "string",
          "name": "description",
          "type": "string"
        }
      ],
      "name": "OnlyOwners",
      "type": "error"
    },
    {
      "anonymous": false,
      "inputs": [
        {
          "indexed": false,
          "internalType": "uint256",
          "name": "amount",
          "type": "uint256"
        },
        {
          "indexed": false,
          "internalType": "address",
          "name": "sender",
          "type": "address"
        },
        {
          "indexed": false,
          "internalType": "string",
          "name": "tokenName",
          "type": "string"
        }
      ],
      "name": "ERC20Deposit",
      "type": "event"
    },
    {
      "anonymous": false,
      "inputs": [
        {
          "indexed": false,
          "internalType": "address",
          "name": "beneficiary",
          "type": "address"
        },
        {
          "indexed": false,
          "internalType": "address",
          "name": "admin",
          "type": "address"
        },
        {
          "indexed": false,
          "internalType": "address",
          "name": "reserve",
          "type": "address"
        },
        {
          "indexed": false,
          "internalType": "uint256",
          "name": "duration",
          "type": "uint256"
        },
        {
          "indexed": false,
          "internalType": "uint256",
          "name": "endTime",
          "type": "uint256"
        }
      ],
      "name": "InitiatedTrustFund",
      "type": "event"
    },
    {
      "anonymous": false,
      "inputs": [
        {
          "indexed": true,
          "internalType": "address",
          "name": "previousOwner",
          "type": "address"
        },
        {
          "indexed": true,
          "internalType": "address",
          "name": "newOwner",
          "type": "address"
        }
      ],
      "name": "OwnershipTransferred",
      "type": "event"
    },
    {
      "anonymous": false,
      "inputs": [
        {
          "indexed": false,
          "internalType": "address",
          "name": "beneficiary",
          "type": "address"
        }
      ],
      "name": "Withdrawn",
      "type": "event"
    },
    {
      "anonymous": false,
      "inputs": [
        {
          "indexed": false,
          "internalType": "uint256",
          "name": "amount",
          "type": "uint256"
        },
        {
          "indexed": true,
          "internalType": "address",
          "name": "depositedTo",
          "type": "address"
        }
      ],
      "name": "depositDone",
      "type": "event"
    },
    {
      "inputs": [],
      "name": "ContractBalance",
      "outputs": [
        {
          "internalType": "uint256",
          "name": "",
          "type": "uint256"
        }
      ],
      "stateMutability": "view",
      "type": "function"
    },
    {
      "inputs": [
        {
          "internalType": "address",
          "name": "_token",
          "type": "address"
        },
        {
          "internalType": "uint256",
          "name": "_amount",
          "type": "uint256"
        }
      ],
      "name": "ERC20deposit",
      "outputs": [],
      "stateMutability": "nonpayable",
      "type": "function"
    },
    {
      "inputs": [],
      "name": "ETHdeposit",
      "outputs": [
        {
          "internalType": "uint256",
          "name": "",
          "type": "uint256"
        }
      ],
      "stateMutability": "payable",
      "type": "function"
    },
    {
      "inputs": [],
      "name": "admin",
      "outputs": [
        {
          "internalType": "address",
          "name": "",
          "type": "address"
        }
      ],
      "stateMutability": "view",
      "type": "function"
    },
    {
      "inputs": [],
      "name": "approveWithdraw",
      "outputs": [
        {
          "internalType": "bool",
          "name": "approved",
          "type": "bool"
        }
      ],
      "stateMutability": "nonpayable",
      "type": "function"
    },
    {
      "inputs": [],
      "name": "beneficiary",
      "outputs": [
        {
          "internalType": "address",
          "name": "",
          "type": "address"
        }
      ],
      "stateMutability": "view",
      "type": "function"
    },
    {
      "inputs": [],
      "name": "destroyContract",
      "outputs": [],
      "stateMutability": "nonpayable",
      "type": "function"
    },
    {
      "inputs": [],
      "name": "endTime",
      "outputs": [
        {
          "internalType": "uint256",
          "name": "",
          "type": "uint256"
        }
      ],
      "stateMutability": "view",
      "type": "function"
    },
    {
      "inputs": [],
      "name": "getBalance",
      "outputs": [
        {
          "internalType": "uint256",
          "name": "",
          "type": "uint256"
        }
      ],
      "stateMutability": "view",
      "type": "function"
    },
    {
      "inputs": [
        {
          "internalType": "contract IERC20",
          "name": "_token",
          "type": "address"
        }
      ],
      "name": "getERC20Balance",
      "outputs": [
        {
          "internalType": "uint256",
          "name": "",
          "type": "uint256"
        }
      ],
      "stateMutability": "view",
      "type": "function"
    },
    {
      "inputs": [],
      "name": "getTokens",
      "outputs": [
        {
          "internalType": "contract IERC20[]",
          "name": "",
          "type": "address[]"
        }
      ],
      "stateMutability": "view",
      "type": "function"
    },
    {
      "inputs": [],
      "name": "isAdmin",
      "outputs": [
        {
          "internalType": "bool",
          "name": "",
          "type": "bool"
        }
      ],
      "stateMutability": "view",
      "type": "function"
    },
    {
      "inputs": [],
      "name": "isOwner",
      "outputs": [
        {
          "internalType": "bool",
          "name": "",
          "type": "bool"
        }
      ],
      "stateMutability": "view",
      "type": "function"
    },
    {
      "inputs": [],
      "name": "isReserve",
      "outputs": [
        {
          "internalType": "bool",
          "name": "",
          "type": "bool"
        }
      ],
      "stateMutability": "view",
      "type": "function"
    },
    {
      "inputs": [],
      "name": "owner",
      "outputs": [
        {
          "internalType": "address",
          "name": "",
          "type": "address"
        }
      ],
      "stateMutability": "view",
      "type": "function"
    },
    {
      "inputs": [],
      "name": "renounceOwnership",
      "outputs": [],
      "stateMutability": "nonpayable",
      "type": "function"
    },
    {
      "inputs": [],
      "name": "reserve",
      "outputs": [
        {
          "internalType": "address",
          "name": "",
          "type": "address"
        }
      ],
      "stateMutability": "view",
      "type": "function"
    },
    {
      "inputs": [
        {
          "internalType": "address",
          "name": "newOwner",
          "type": "address"
        }
      ],
      "name": "transferOwnership",
      "outputs": [],
      "stateMutability": "nonpayable",
      "type": "function"
    }
  ],
  "bytecode": "0x60806040523480156200001157600080fd5b506040516200237c3803806200237c8339818101604052810190620000379190620002cd565b620000576200004b620001ea60201b60201c565b620001f260201b60201c565b82600360006101000a81548173ffffffffffffffffffffffffffffffffffffffff021916908373ffffffffffffffffffffffffffffffffffffffff16021790555081600160006101000a81548173ffffffffffffffffffffffffffffffffffffffff021916908373ffffffffffffffffffffffffffffffffffffffff16021790555080600260006101000a81548173ffffffffffffffffffffffffffffffffffffffff021916908373ffffffffffffffffffffffffffffffffffffffff16021790555060006312cf346c90508042620001319190620003a8565b6005819055507f4b814d3a83ef2fa21a334b3e22ff0fd5b13484e79eda35d49e16139277b3423e600360009054906101000a900473ffffffffffffffffffffffffffffffffffffffff16600160009054906101000a900473ffffffffffffffffffffffffffffffffffffffff16600260009054906101000a900473ffffffffffffffffffffffffffffffffffffffff1684600554604051620001d89594939291906200034b565b60405180910390a15050505062000491565b600033905090565b60008060009054906101000a900473ffffffffffffffffffffffffffffffffffffffff169050816000806101000a81548173ffffffffffffffffffffffffffffffffffffffff021916908373ffffffffffffffffffffffffffffffffffffffff1602179055508173ffffffffffffffffffffffffffffffffffffffff168173ffffffffffffffffffffffffffffffffffffffff167f8be0079c531659141344cd1fd0a4f28419497f9722a3daafe3b4186f6b6457e060405160405180910390a35050565b600081519050620002c78162000477565b92915050565b600080600060608486031215620002e957620002e862000472565b5b6000620002f986828701620002b6565b93505060206200030c86828701620002b6565b92505060406200031f86828701620002b6565b9150509250925092565b620003348162000405565b82525050565b620003458162000439565b82525050565b600060a08201905062000362600083018862000329565b62000371602083018762000329565b62000380604083018662000329565b6200038f60608301856200033a565b6200039e60808301846200033a565b9695505050505050565b6000620003b58262000439565b9150620003c28362000439565b9250827fffffffffffffffffffffffffffffffffffffffffffffffffffffffffffffffff03821115620003fa57620003f962000443565b5b828201905092915050565b6000620004128262000419565b9050919050565b600073ffffffffffffffffffffffffffffffffffffffff82169050919050565b6000819050919050565b7f4e487b7100000000000000000000000000000000000000000000000000000000600052601160045260246000fd5b600080fd5b620004828162000405565b81146200048e57600080fd5b50565b611edb80620004a16000396000f3fe6080604052600436106101095760003560e01c80638f32d59b11610095578063b6db75a011610064578063b6db75a014610318578063b9b8230114610343578063cd3293de1461036e578063f2fde38b14610399578063f851a440146103c257610109565b80638f32d59b1461025c578063aa6ca80814610287578063ae5dbc9d146102b2578063b588d225146102db57610109565b80633b668059116100dc5780633b668059146101a65780635dfe4488146101d1578063715018a6146101ef578063820ddb3d146102065780638da5cb5b1461023157610109565b8063092a5cce1461010e57806312065fe0146101255780633197cbb61461015057806338af3eed1461017b575b600080fd5b34801561011a57600080fd5b506101236103ed565b005b34801561013157600080fd5b5061013a610501565b6040516101479190611927565b60405180910390f35b34801561015c57600080fd5b5061016561050b565b6040516101729190611927565b60405180910390f35b34801561018757600080fd5b50610190610511565b60405161019d919061178f565b60405180910390f35b3480156101b257600080fd5b506101bb610537565b6040516101c89190611927565b60405180910390f35b6101d961053d565b6040516101e69190611927565b60405180910390f35b3480156101fb57600080fd5b506102046105f1565b005b34801561021257600080fd5b5061021b610679565b604051610228919061182c565b60405180910390f35b34801561023d57600080fd5b5061024661068c565b604051610253919061178f565b60405180910390f35b34801561026857600080fd5b506102716106b5565b60405161027e919061182c565b60405180910390f35b34801561029357600080fd5b5061029c6106c8565b6040516102a9919061180a565b60405180910390f35b3480156102be57600080fd5b506102d960048036038101906102d4919061149f565b610756565b005b3480156102e757600080fd5b5061030260048036038101906102fd919061150c565b610916565b60405161030f9190611927565b60405180910390f35b34801561032457600080fd5b5061032d6109a8565b60405161033a919061182c565b60405180910390f35b34801561034f57600080fd5b506103586109bb565b604051610365919061182c565b60405180910390f35b34801561037a57600080fd5b50610383610e43565b604051610390919061178f565b60405180910390f35b3480156103a557600080fd5b506103c060048036038101906103bb9190611472565b610e69565b005b3480156103ce57600080fd5b506103d7610f61565b6040516103e4919061178f565b60405180910390f35b6103f5610f87565b73ffffffffffffffffffffffffffffffffffffffff1661041361068c565b73ffffffffffffffffffffffffffffffffffffffff1614610469576040517f08c379a0000000000000000000000000000000000000000000000000000000008152600401610460906118e7565b60405180910390fd5b600061047361068c565b90503373ffffffffffffffffffffffffffffffffffffffff168173ffffffffffffffffffffffffffffffffffffffff16146104e3576040517fbec8fe240000000000000000000000000000000000000000000000000000000081526004016104da90611847565b60405180910390fd5b60008190508073ffffffffffffffffffffffffffffffffffffffff16ff5b6000600454905090565b60055481565b600360009054906101000a900473ffffffffffffffffffffffffffffffffffffffff1681565b60045481565b600080341415610582576040517f08c379a000000000000000000000000000000000000000000000000000000000815260040161057990611907565b60405180910390fd5b34600460008282546105949190611a2b565b925050819055503373ffffffffffffffffffffffffffffffffffffffff167f55b8d2fc1aaf27628691a3336b517d7b40bee36ba595a24e893d1e872afb82d1346040516105e19190611927565b60405180910390a2600454905090565b6105f9610f87565b73ffffffffffffffffffffffffffffffffffffffff1661061761068c565b73ffffffffffffffffffffffffffffffffffffffff161461066d576040517f08c379a0000000000000000000000000000000000000000000000000000000008152600401610664906118e7565b60405180910390fd5b6106776000610f8f565b565b600660019054906101000a900460ff1681565b60008060009054906101000a900473ffffffffffffffffffffffffffffffffffffffff16905090565b600660029054906101000a900460ff1681565b6060600780548060200260200160405190810160405280929190818152602001828054801561074c57602002820191906000526020600020905b8160009054906101000a900473ffffffffffffffffffffffffffffffffffffffff1673ffffffffffffffffffffffffffffffffffffffff1681526020019060010190808311610702575b5050505050905090565b60008290508073ffffffffffffffffffffffffffffffffffffffff166323b872dd3330856040518463ffffffff1660e01b8152600401610798939291906117aa565b602060405180830381600087803b1580156107b257600080fd5b505af11580156107c6573d6000803e3d6000fd5b505050506040513d601f19601f820116820180604052508101906107ea91906114df565b5060008173ffffffffffffffffffffffffffffffffffffffff166306fdde036040518163ffffffff1660e01b815260040160006040518083038186803b15801561083357600080fd5b505afa158015610847573d6000803e3d6000fd5b505050506040513d6000823e3d601f19601f820116820180604052508101906108709190611539565b90506007829080600181540180825580915050600190039060005260206000200160009091909190916101000a81548173ffffffffffffffffffffffffffffffffffffffff021916908373ffffffffffffffffffffffffffffffffffffffff1602179055507ffe1fd4374ce88a466bde84534d1a887d32d41987066e506c05ff633a27fef72b83338360405161090893929190611942565b60405180910390a150505050565b60008173ffffffffffffffffffffffffffffffffffffffff166370a08231306040518263ffffffff1660e01b8152600401610951919061178f565b60206040518083038186803b15801561096957600080fd5b505afa15801561097d573d6000803e3d6000fd5b505050506040513d601f19601f820116820180604052508101906109a19190611582565b9050919050565b600660009054906101000a900460ff1681565b60003373ffffffffffffffffffffffffffffffffffffffff16600360009054906101000a900473ffffffffffffffffffffffffffffffffffffffff1673ffffffffffffffffffffffffffffffffffffffff161480610a6657503373ffffffffffffffffffffffffffffffffffffffff16600160009054906101000a900473ffffffffffffffffffffffffffffffffffffffff1673ffffffffffffffffffffffffffffffffffffffff16145b80610aa357503373ffffffffffffffffffffffffffffffffffffffff16610a8b61068c565b73ffffffffffffffffffffffffffffffffffffffff16145b80610afb57503373ffffffffffffffffffffffffffffffffffffffff16600260009054906101000a900473ffffffffffffffffffffffffffffffffffffffff1673ffffffffffffffffffffffffffffffffffffffff16145b610b3a576040517f08c379a0000000000000000000000000000000000000000000000000000000008152600401610b31906118a7565b60405180910390fd5b600160009054906101000a900473ffffffffffffffffffffffffffffffffffffffff1673ffffffffffffffffffffffffffffffffffffffff163373ffffffffffffffffffffffffffffffffffffffff161415610bac576001600660006101000a81548160ff0219169083151502179055505b610bb461068c565b73ffffffffffffffffffffffffffffffffffffffff163373ffffffffffffffffffffffffffffffffffffffff161415610c03576001600660026101000a81548160ff0219169083151502179055505b600260009054906101000a900473ffffffffffffffffffffffffffffffffffffffff1673ffffffffffffffffffffffffffffffffffffffff163373ffffffffffffffffffffffffffffffffffffffff161415610c75576001600660016101000a81548160ff0219169083151502179055505b600660009054906101000a900460ff168015610c9d5750600660029054906101000a900460ff165b80610ccc5750600660009054906101000a900460ff168015610ccb5750600660019054906101000a900460ff165b5b80610cfb5750600660029054906101000a900460ff168015610cfa5750600660019054906101000a900460ff165b5b15610d5057610d08611053565b610d47576040517f08c379a0000000000000000000000000000000000000000000000000000000008152600401610d3e906118c7565b60405180910390fd5b60019050610e40565b3373ffffffffffffffffffffffffffffffffffffffff16600360009054906101000a900473ffffffffffffffffffffffffffffffffffffffff1673ffffffffffffffffffffffffffffffffffffffff161415610e3b57426005541115610deb576040517f08c379a0000000000000000000000000000000000000000000000000000000008152600401610de290611887565b60405180910390fd5b610df3611053565b610e32576040517f08c379a0000000000000000000000000000000000000000000000000000000008152600401610e29906118c7565b60405180910390fd5b60019050610e40565b600090505b90565b600260009054906101000a900473ffffffffffffffffffffffffffffffffffffffff1681565b610e71610f87565b73ffffffffffffffffffffffffffffffffffffffff16610e8f61068c565b73ffffffffffffffffffffffffffffffffffffffff1614610ee5576040517f08c379a0000000000000000000000000000000000000000000000000000000008152600401610edc906118e7565b60405180910390fd5b600073ffffffffffffffffffffffffffffffffffffffff168173ffffffffffffffffffffffffffffffffffffffff161415610f55576040517f08c379a0000000000000000000000000000000000000000000000000000000008152600401610f4c90611867565b60405180910390fd5b610f5e81610f8f565b50565b600160009054906101000a900473ffffffffffffffffffffffffffffffffffffffff1681565b600033905090565b60008060009054906101000a900473ffffffffffffffffffffffffffffffffffffffff169050816000806101000a81548173ffffffffffffffffffffffffffffffffffffffff021916908373ffffffffffffffffffffffffffffffffffffffff1602179055508173ffffffffffffffffffffffffffffffffffffffff168173ffffffffffffffffffffffffffffffffffffffff167f8be0079c531659141344cd1fd0a4f28419497f9722a3daafe3b4186f6b6457e060405160405180910390a35050565b600080600660006101000a81548160ff0219169083151502179055506000600660016101000a81548160ff0219169083151502179055506000600660026101000a81548160ff02191690831515021790555060005b60078054905081101561128c576000600782815481106110cb576110ca611c0f565b5b9060005260206000200160009054906101000a900473ffffffffffffffffffffffffffffffffffffffff1673ffffffffffffffffffffffffffffffffffffffff166370a08231306040518263ffffffff1660e01b815260040161112e919061178f565b60206040518083038186803b15801561114657600080fd5b505afa15801561115a573d6000803e3d6000fd5b505050506040513d601f19601f8201168201806040525081019061117e9190611582565b90506000811115611278576007828154811061119d5761119c611c0f565b5b9060005260206000200160009054906101000a900473ffffffffffffffffffffffffffffffffffffffff1673ffffffffffffffffffffffffffffffffffffffff1663a9059cbb600360009054906101000a900473ffffffffffffffffffffffffffffffffffffffff16836040518363ffffffff1660e01b81526004016112249291906117e1565b602060405180830381600087803b15801561123e57600080fd5b505af1158015611252573d6000803e3d6000fd5b505050506040513d601f19601f8201168201806040525081019061127691906114df565b505b50808061128490611b97565b9150506110a8565b506112956112f6565b507ff45a04d08a70caa7eb4b747571305559ad9fdf4a093afd41506b35c8a306fa94600360009054906101000a900473ffffffffffffffffffffffffffffffffffffffff166040516112e7919061178f565b60405180910390a16001905090565b600080600454101561130757600080fd5b6000600454905080600460008282546113209190611a81565b92505081905550600360009054906101000a900473ffffffffffffffffffffffffffffffffffffffff1673ffffffffffffffffffffffffffffffffffffffff166108fc829081150290604051600060405180830381858888f1935050505015801561138f573d6000803e3d6000fd5b5060045491505090565b60006113ac6113a7846119a5565b611980565b9050828152602081018484840111156113c8576113c7611c72565b5b6113d3848285611b33565b509392505050565b6000813590506113ea81611e49565b92915050565b6000815190506113ff81611e60565b92915050565b60008135905061141481611e77565b92915050565b600082601f83011261142f5761142e611c6d565b5b815161143f848260208601611399565b91505092915050565b60008135905061145781611e8e565b92915050565b60008151905061146c81611e8e565b92915050565b60006020828403121561148857611487611c7c565b5b6000611496848285016113db565b91505092915050565b600080604083850312156114b6576114b5611c7c565b5b60006114c4858286016113db565b92505060206114d585828601611448565b9150509250929050565b6000602082840312156114f5576114f4611c7c565b5b6000611503848285016113f0565b91505092915050565b60006020828403121561152257611521611c7c565b5b600061153084828501611405565b91505092915050565b60006020828403121561154f5761154e611c7c565b5b600082015167ffffffffffffffff81111561156d5761156c611c77565b5b6115798482850161141a565b91505092915050565b60006020828403121561159857611597611c7c565b5b60006115a68482850161145d565b91505092915050565b60006115bb8383611643565b60208301905092915050565b6115d081611ab5565b82525050565b60006115e1826119e6565b6115eb8185611a09565b93506115f6836119d6565b8060005b8381101561162757815161160e88826115af565b9750611619836119fc565b9250506001810190506115fa565b5085935050505092915050565b61163d81611ac7565b82525050565b61164c81611b0f565b82525050565b600061165d826119f1565b6116678185611a1a565b9350611677818560208601611b33565b61168081611c81565b840191505092915050565b6000611698603383611a1a565b91506116a382611c92565b604082019050919050565b60006116bb602683611a1a565b91506116c682611ce1565b604082019050919050565b60006116de603383611a1a565b91506116e982611d30565b604082019050919050565b6000611701603883611a1a565b915061170c82611d7f565b604082019050919050565b6000611724601083611a1a565b915061172f82611dce565b602082019050919050565b6000611747602083611a1a565b915061175282611df7565b602082019050919050565b600061176a601583611a1a565b915061177582611e20565b602082019050919050565b61178981611b05565b82525050565b60006020820190506117a460008301846115c7565b92915050565b60006060820190506117bf60008301866115c7565b6117cc60208301856115c7565b6117d96040830184611780565b949350505050565b60006040820190506117f660008301856115c7565b6118036020830184611780565b9392505050565b6000602082019050818103600083015261182481846115d6565b905092915050565b60006020820190506118416000830184611634565b92915050565b600060208201905081810360008301526118608161168b565b9050919050565b60006020820190508181036000830152611880816116ae565b9050919050565b600060208201905081810360008301526118a0816116d1565b9050919050565b600060208201905081810360008301526118c0816116f4565b9050919050565b600060208201905081810360008301526118e081611717565b9050919050565b600060208201905081810360008301526119008161173a565b9050919050565b600060208201905081810360008301526119208161175d565b9050919050565b600060208201905061193c6000830184611780565b92915050565b60006060820190506119576000830186611780565b61196460208301856115c7565b81810360408301526119768184611652565b9050949350505050565b600061198a61199b565b90506119968282611b66565b919050565b6000604051905090565b600067ffffffffffffffff8211156119c0576119bf611c3e565b5b6119c982611c81565b9050602081019050919050565b6000819050602082019050919050565b600081519050919050565b600081519050919050565b6000602082019050919050565b600082825260208201905092915050565b600082825260208201905092915050565b6000611a3682611b05565b9150611a4183611b05565b9250827fffffffffffffffffffffffffffffffffffffffffffffffffffffffffffffffff03821115611a7657611a75611be0565b5b828201905092915050565b6000611a8c82611b05565b9150611a9783611b05565b925082821015611aaa57611aa9611be0565b5b828203905092915050565b6000611ac082611ae5565b9050919050565b60008115159050919050565b6000611ade82611ab5565b9050919050565b600073ffffffffffffffffffffffffffffffffffffffff82169050919050565b6000819050919050565b6000611b1a82611b21565b9050919050565b6000611b2c82611ae5565b9050919050565b60005b83811015611b51578082015181840152602081019050611b36565b83811115611b60576000848401525b50505050565b611b6f82611c81565b810181811067ffffffffffffffff82111715611b8e57611b8d611c3e565b5b80604052505050565b6000611ba282611b05565b91507fffffffffffffffffffffffffffffffffffffffffffffffffffffffffffffffff821415611bd557611bd4611be0565b5b600182019050919050565b7f4e487b7100000000000000000000000000000000000000000000000000000000600052601160045260246000fd5b7f4e487b7100000000000000000000000000000000000000000000000000000000600052603260045260246000fd5b7f4e487b7100000000000000000000000000000000000000000000000000000000600052604160045260246000fd5b600080fd5b600080fd5b600080fd5b600080fd5b6000601f19601f8301169050919050565b7f547275737446756e643a204f6e6c7920746865204f574e45522063616e20657860008201527f65637574652073656c6664657374727563742100000000000000000000000000602082015250565b7f4f776e61626c653a206e6577206f776e657220697320746865207a65726f206160008201527f6464726573730000000000000000000000000000000000000000000000000000602082015250565b7f547275737446756e643a20547275737446756e64206973206e6f74206f70656e60008201527f20666f7220776974686472617773207965742100000000000000000000000000602082015250565b7f547275737446756e643a204f6e6c7920616e2076616c6964206164647265737360008201527f2063616e2063616c6c20746869732066756e6374696f6e210000000000000000602082015250565b7f5769746864726177206661696c65642100000000000000000000000000000000600082015250565b7f4f776e61626c653a2063616c6c6572206973206e6f7420746865206f776e6572600082015250565b7f43616e27742073656e64207a65726f2076616c75650000000000000000000000600082015250565b611e5281611ab5565b8114611e5d57600080fd5b50565b611e6981611ac7565b8114611e7457600080fd5b50565b611e8081611ad3565b8114611e8b57600080fd5b50565b611e9781611b05565b8114611ea257600080fd5b5056fea264697066735822122003f445e722ebf5cf08d186a2b62b56ff164518a264f83e15f99e44018bafd87464736f6c63430008060033",
  "linkReferences": {},
  "deployedLinkReferences": {}
}