{
  "_format": "hh-sol-artifact-1",
  "contractName": "TestTokenTwo",
  "sourceName": "contracts/TestTokenTwo.sol",
  "abi": [
    {
      "inputs": [],
      "stateMutability": "nonpayable",
      "type": "constructor"
    },
    {
      "anonymous": false,
      "inputs": [
        {
          "indexed": true,
          "internalType": "address",
          "name": "owner",
          "type": "address"
        },
        {
          "indexed": true,
          "internalType": "address",
          "name": "spender",
          "type": "address"
        },
        {
          "indexed": false,
          "internalType": "uint256",
          "name": "value",
          "type": "uint256"
        }
      ],
      "name": "Approval",
      "type": "event"
    },
    {
      "anonymous": false,
      "inputs": [
        {
          "indexed": true,
          "internalType": "address",
          "name": "previousOwner",
          "type": "address"
        },
        {
          "indexed": true,
          "internalType": "address",
          "name": "newOwner",
          "type": "address"
        }
      ],
      "name": "OwnershipTransferred",
      "type": "event"
    },
    {
      "anonymous": false,
      "inputs": [
        {
          "indexed": false,
          "internalType": "uint256",
          "name": "id",
          "type": "uint256"
        }
      ],
      "name": "Snapshot",
      "type": "event"
    },
    {
      "anonymous": false,
      "inputs": [
        {
          "indexed": true,
          "internalType": "address",
          "name": "from",
          "type": "address"
        },
        {
          "indexed": true,
          "internalType": "address",
          "name": "to",
          "type": "address"
        },
        {
          "indexed": false,
          "internalType": "uint256",
          "name": "value",
          "type": "uint256"
        }
      ],
      "name": "Transfer",
      "type": "event"
    },
    {
      "inputs": [],
      "name": "DOMAIN_SEPARATOR",
      "outputs": [
        {
          "internalType": "bytes32",
          "name": "",
          "type": "bytes32"
        }
      ],
      "stateMutability": "view",
      "type": "function"
    },
    {
      "inputs": [
        {
          "internalType": "address",
          "name": "owner",
          "type": "address"
        },
        {
          "internalType": "address",
          "name": "spender",
          "type": "address"
        }
      ],
      "name": "allowance",
      "outputs": [
        {
          "internalType": "uint256",
          "name": "",
          "type": "uint256"
        }
      ],
      "stateMutability": "view",
      "type": "function"
    },
    {
      "inputs": [
        {
          "internalType": "address",
          "name": "spender",
          "type": "address"
        },
        {
          "internalType": "uint256",
          "name": "amount",
          "type": "uint256"
        }
      ],
      "name": "approve",
      "outputs": [
        {
          "internalType": "bool",
          "name": "",
          "type": "bool"
        }
      ],
      "stateMutability": "nonpayable",
      "type": "function"
    },
    {
      "inputs": [
        {
          "internalType": "address",
          "name": "account",
          "type": "address"
        }
      ],
      "name": "balanceOf",
      "outputs": [
        {
          "internalType": "uint256",
          "name": "",
          "type": "uint256"
        }
      ],
      "stateMutability": "view",
      "type": "function"
    },
    {
      "inputs": [
        {
          "internalType": "address",
          "name": "account",
          "type": "address"
        },
        {
          "internalType": "uint256",
          "name": "snapshotId",
          "type": "uint256"
        }
      ],
      "name": "balanceOfAt",
      "outputs": [
        {
          "internalType": "uint256",
          "name": "",
          "type": "uint256"
        }
      ],
      "stateMutability": "view",
      "type": "function"
    },
    {
      "inputs": [
        {
          "internalType": "uint256",
          "name": "amount",
          "type": "uint256"
        }
      ],
      "name": "burn",
      "outputs": [],
      "stateMutability": "nonpayable",
      "type": "function"
    },
    {
      "inputs": [
        {
          "internalType": "address",
          "name": "account",
          "type": "address"
        },
        {
          "internalType": "uint256",
          "name": "amount",
          "type": "uint256"
        }
      ],
      "name": "burnFrom",
      "outputs": [],
      "stateMutability": "nonpayable",
      "type": "function"
    },
    {
      "inputs": [],
      "name": "decimals",
      "outputs": [
        {
          "internalType": "uint8",
          "name": "",
          "type": "uint8"
        }
      ],
      "stateMutability": "view",
      "type": "function"
    },
    {
      "inputs": [
        {
          "internalType": "address",
          "name": "spender",
          "type": "address"
        },
        {
          "internalType": "uint256",
          "name": "subtractedValue",
          "type": "uint256"
        }
      ],
      "name": "decreaseAllowance",
      "outputs": [
        {
          "internalType": "bool",
          "name": "",
          "type": "bool"
        }
      ],
      "stateMutability": "nonpayable",
      "type": "function"
    },
    {
      "inputs": [
        {
          "internalType": "address",
          "name": "spender",
          "type": "address"
        },
        {
          "internalType": "uint256",
          "name": "addedValue",
          "type": "uint256"
        }
      ],
      "name": "increaseAllowance",
      "outputs": [
        {
          "internalType": "bool",
          "name": "",
          "type": "bool"
        }
      ],
      "stateMutability": "nonpayable",
      "type": "function"
    },
    {
      "inputs": [
        {
          "internalType": "address",
          "name": "to",
          "type": "address"
        },
        {
          "internalType": "uint256",
          "name": "amount",
          "type": "uint256"
        }
      ],
      "name": "mint",
      "outputs": [],
      "stateMutability": "nonpayable",
      "type": "function"
    },
    {
      "inputs": [],
      "name": "name",
      "outputs": [
        {
          "internalType": "string",
          "name": "",
          "type": "string"
        }
      ],
      "stateMutability": "view",
      "type": "function"
    },
    {
      "inputs": [
        {
          "internalType": "address",
          "name": "owner",
          "type": "address"
        }
      ],
      "name": "nonces",
      "outputs": [
        {
          "internalType": "uint256",
          "name": "",
          "type": "uint256"
        }
      ],
      "stateMutability": "view",
      "type": "function"
    },
    {
      "inputs": [],
      "name": "owner",
      "outputs": [
        {
          "internalType": "address",
          "name": "",
          "type": "address"
        }
      ],
      "stateMutability": "view",
      "type": "function"
    },
    {
      "inputs": [
        {
          "internalType": "address",
          "name": "owner",
          "type": "address"
        },
        {
          "internalType": "address",
          "name": "spender",
          "type": "address"
        },
        {
          "internalType": "uint256",
          "name": "value",
          "type": "uint256"
        },
        {
          "internalType": "uint256",
          "name": "deadline",
          "type": "uint256"
        },
        {
          "internalType": "uint8",
          "name": "v",
          "type": "uint8"
        },
        {
          "internalType": "bytes32",
          "name": "r",
          "type": "bytes32"
        },
        {
          "internalType": "bytes32",
          "name": "s",
          "type": "bytes32"
        }
      ],
      "name": "permit",
      "outputs": [],
      "stateMutability": "nonpayable",
      "type": "function"
    },
    {
      "inputs": [],
      "name": "renounceOwnership",
      "outputs": [],
      "stateMutability": "nonpayable",
      "type": "function"
    },
    {
      "inputs": [],
      "name": "snapshot",
      "outputs": [],
      "stateMutability": "nonpayable",
      "type": "function"
    },
    {
      "inputs": [],
      "name": "symbol",
      "outputs": [
        {
          "internalType": "string",
          "name": "",
          "type": "string"
        }
      ],
      "stateMutability": "view",
      "type": "function"
    },
    {
      "inputs": [],
      "name": "totalSupply",
      "outputs": [
        {
          "internalType": "uint256",
          "name": "",
          "type": "uint256"
        }
      ],
      "stateMutability": "view",
      "type": "function"
    },
    {
      "inputs": [
        {
          "internalType": "uint256",
          "name": "snapshotId",
          "type": "uint256"
        }
      ],
      "name": "totalSupplyAt",
      "outputs": [
        {
          "internalType": "uint256",
          "name": "",
          "type": "uint256"
        }
      ],
      "stateMutability": "view",
      "type": "function"
    },
    {
      "inputs": [
        {
          "internalType": "address",
          "name": "recipient",
          "type": "address"
        },
        {
          "internalType": "uint256",
          "name": "amount",
          "type": "uint256"
        }
      ],
      "name": "transfer",
      "outputs": [
        {
          "internalType": "bool",
          "name": "",
          "type": "bool"
        }
      ],
      "stateMutability": "nonpayable",
      "type": "function"
    },
    {
      "inputs": [
        {
          "internalType": "address",
          "name": "sender",
          "type": "address"
        },
        {
          "internalType": "address",
          "name": "recipient",
          "type": "address"
        },
        {
          "internalType": "uint256",
          "name": "amount",
          "type": "uint256"
        }
      ],
      "name": "transferFrom",
      "outputs": [
        {
          "internalType": "bool",
          "name": "",
          "type": "bool"
        }
      ],
      "stateMutability": "nonpayable",
      "type": "function"
    },
    {
      "inputs": [
        {
          "internalType": "address",
          "name": "newOwner",
          "type": "address"
        }
      ],
      "name": "transferOwnership",
      "outputs": [],
      "stateMutability": "nonpayable",
      "type": "function"
    }
  ],
  "bytecode": "0x6101406040527f6e71edae12b1b97f4d1f60370fef10105fa2faae0126114a169c64845d6126c9610120908152503480156200003a57600080fd5b506040518060400160405280600c81526020017f54657374546f6b656e54776f0000000000000000000000000000000000000000815250806040518060400160405280600181526020017f31000000000000000000000000000000000000000000000000000000000000008152506040518060400160405280600c81526020017f54657374546f6b656e54776f00000000000000000000000000000000000000008152506040518060400160405280600781526020017f5445535454574f0000000000000000000000000000000000000000000000000081525081600390805190602001906200012c929190620007be565b50806004908051906020019062000145929190620007be565b505050620001686200015c6200022b60201b60201c565b6200023360201b60201c565b60008280519060200120905060008280519060200120905060007f8b73c3c69bb8fe3d512ecc4cf759cc79239f7b179b0ffacaa9a75d522b39400f90508260c081815250508160e081815250504660a08181525050620001d0818484620002f960201b60201c565b608081815250508061010081815250505050505050506200022533620001fb6200033560201b60201c565b600a62000209919062000a2d565b620f424062000219919062000b6a565b6200033e60201b60201c565b62000d54565b600033905090565b6000600960009054906101000a900473ffffffffffffffffffffffffffffffffffffffff16905081600960006101000a81548173ffffffffffffffffffffffffffffffffffffffff021916908373ffffffffffffffffffffffffffffffffffffffff1602179055508173ffffffffffffffffffffffffffffffffffffffff168173ffffffffffffffffffffffffffffffffffffffff167f8be0079c531659141344cd1fd0a4f28419497f9722a3daafe3b4186f6b6457e060405160405180910390a35050565b6000838383463060405160200162000316959493929190620008c8565b6040516020818303038152906040528051906020012090509392505050565b60006012905090565b600073ffffffffffffffffffffffffffffffffffffffff168273ffffffffffffffffffffffffffffffffffffffff161415620003b1576040517f08c379a0000000000000000000000000000000000000000000000000000000008152600401620003a89062000925565b60405180910390fd5b620003c560008383620004b760201b60201c565b8060026000828254620003d9919062000975565b92505081905550806000808473ffffffffffffffffffffffffffffffffffffffff1673ffffffffffffffffffffffffffffffffffffffff168152602001908152602001600020600082825462000430919062000975565b925050819055508173ffffffffffffffffffffffffffffffffffffffff16600073ffffffffffffffffffffffffffffffffffffffff167fddf252ad1be2c89b69c2b068fc378daa952ba7f163c4a11628f55a4df523b3ef8360405162000497919062000947565b60405180910390a3620004b360008383620004d460201b60201c565b5050565b620004cf838383620004d960201b62000ee31760201c565b505050565b505050565b620004f1838383620005d460201b62000f9d1760201c565b600073ffffffffffffffffffffffffffffffffffffffff168373ffffffffffffffffffffffffffffffffffffffff1614156200054e576200053882620005d960201b60201c565b620005486200063c60201b60201c565b620005cf565b600073ffffffffffffffffffffffffffffffffffffffff168273ffffffffffffffffffffffffffffffffffffffff161415620005ab576200059583620005d960201b60201c565b620005a56200063c60201b60201c565b620005ce565b620005bc83620005d960201b60201c565b620005cd82620005d960201b60201c565b5b5b505050565b505050565b62000639600560008373ffffffffffffffffffffffffffffffffffffffff1673ffffffffffffffffffffffffffffffffffffffff1681526020019081526020016000206200062d836200066060201b60201c565b620006a860201b60201c565b50565b6200065e6006620006526200073460201b60201c565b620006a860201b60201c565b565b60008060008373ffffffffffffffffffffffffffffffffffffffff1673ffffffffffffffffffffffffffffffffffffffff168152602001908152602001600020549050919050565b6000620006ba6200073e60201b60201c565b905080620006d1846000016200075c60201b60201c565b10156200072f5782600001819080600181540180825580915050600190039060005260206000200160009091909190915055826001018290806001815401808255809150506001900390600052602060002001600090919091909150555b505050565b6000600254905090565b6000620007576008620007b060201b62000fa21760201c565b905090565b60008082805490501415620007755760009050620007ab565b816001838054905062000789919062000bcb565b815481106200079d576200079c62000cef565b5b906000526020600020015490505b919050565b600081600001549050919050565b828054620007cc9062000c5b565b90600052602060002090601f016020900481019282620007f057600085556200083c565b82601f106200080b57805160ff19168380011785556200083c565b828001600101855582156200083c579182015b828111156200083b5782518255916020019190600101906200081e565b5b5090506200084b91906200084f565b5090565b5b808211156200086a57600081600090555060010162000850565b5090565b620008798162000c06565b82525050565b6200088a8162000c1a565b82525050565b60006200089f601f8362000964565b9150620008ac8262000d2b565b602082019050919050565b620008c28162000c44565b82525050565b600060a082019050620008df60008301886200087f565b620008ee60208301876200087f565b620008fd60408301866200087f565b6200090c6060830185620008b7565b6200091b60808301846200086e565b9695505050505050565b60006020820190508181036000830152620009408162000890565b9050919050565b60006020820190506200095e6000830184620008b7565b92915050565b600082825260208201905092915050565b6000620009828262000c44565b91506200098f8362000c44565b9250827fffffffffffffffffffffffffffffffffffffffffffffffffffffffffffffffff03821115620009c757620009c662000c91565b5b828201905092915050565b6000808291508390505b600185111562000a2457808604811115620009fc57620009fb62000c91565b5b600185161562000a0c5780820291505b808102905062000a1c8562000d1e565b9450620009dc565b94509492505050565b600062000a3a8262000c44565b915062000a478362000c4e565b925062000a767fffffffffffffffffffffffffffffffffffffffffffffffffffffffffffffffff848462000a7e565b905092915050565b60008262000a90576001905062000b63565b8162000aa0576000905062000b63565b816001811462000ab9576002811462000ac45762000afa565b600191505062000b63565b60ff84111562000ad95762000ad862000c91565b5b8360020a91508482111562000af35762000af262000c91565b5b5062000b63565b5060208310610133831016604e8410600b841016171562000b345782820a90508381111562000b2e5762000b2d62000c91565b5b62000b63565b62000b438484846001620009d2565b9250905081840481111562000b5d5762000b5c62000c91565b5b81810290505b9392505050565b600062000b778262000c44565b915062000b848362000c44565b9250817fffffffffffffffffffffffffffffffffffffffffffffffffffffffffffffffff048311821515161562000bc05762000bbf62000c91565b5b828202905092915050565b600062000bd88262000c44565b915062000be58362000c44565b92508282101562000bfb5762000bfa62000c91565b5b828203905092915050565b600062000c138262000c24565b9050919050565b6000819050919050565b600073ffffffffffffffffffffffffffffffffffffffff82169050919050565b6000819050919050565b600060ff82169050919050565b6000600282049050600182168062000c7457607f821691505b6020821081141562000c8b5762000c8a62000cc0565b5b50919050565b7f4e487b7100000000000000000000000000000000000000000000000000000000600052601160045260246000fd5b7f4e487b7100000000000000000000000000000000000000000000000000000000600052602260045260246000fd5b7f4e487b7100000000000000000000000000000000000000000000000000000000600052603260045260246000fd5b60008160011c9050919050565b7f45524332303a206d696e7420746f20746865207a65726f206164647265737300600082015250565b60805160a05160c05160e051610100516101205161335d62000da46000396000610c690152600061145b0152600061149d0152600061147c0152600061140801526000611430015261335d6000f3fe608060405234801561001057600080fd5b506004361061014d5760003560e01c8063715018a6116100c3578063981b24d01161007c578063981b24d01461038e578063a457c2d7146103be578063a9059cbb146103ee578063d505accf1461041e578063dd62ed3e1461043a578063f2fde38b1461046a5761014d565b8063715018a6146102f257806379cc6790146102fc5780637ecebe00146103185780638da5cb5b1461034857806395d89b41146103665780639711715a146103845761014d565b80633644e515116101155780633644e5151461020c578063395093511461022a57806340c10f191461025a57806342966c68146102765780634ee2cd7e1461029257806370a08231146102c25761014d565b806306fdde0314610152578063095ea7b31461017057806318160ddd146101a057806323b872dd146101be578063313ce567146101ee575b600080fd5b61015a610486565b60405161016791906127ae565b60405180910390f35b61018a60048036038101906101859190612223565b610518565b604051610197919061267f565b60405180910390f35b6101a8610536565b6040516101b59190612a70565b60405180910390f35b6101d860048036038101906101d3919061212e565b610540565b6040516101e5919061267f565b60405180910390f35b6101f6610638565b6040516102039190612a8b565b60405180910390f35b610214610641565b604051610221919061269a565b60405180910390f35b610244600480360381019061023f9190612223565b610650565b604051610251919061267f565b60405180910390f35b610274600480360381019061026f9190612223565b6106fc565b005b610290600480360381019061028b9190612263565b610786565b005b6102ac60048036038101906102a79190612223565b61079a565b6040516102b99190612a70565b60405180910390f35b6102dc60048036038101906102d791906120c1565b61080a565b6040516102e99190612a70565b60405180910390f35b6102fa610852565b005b61031660048036038101906103119190612223565b6108da565b005b610332600480360381019061032d91906120c1565b610955565b60405161033f9190612a70565b60405180910390f35b6103506109a5565b60405161035d9190612664565b60405180910390f35b61036e6109cf565b60405161037b91906127ae565b60405180910390f35b61038c610a61565b005b6103a860048036038101906103a39190612263565b610ae8565b6040516103b59190612a70565b60405180910390f35b6103d860048036038101906103d39190612223565b610b19565b6040516103e5919061267f565b60405180910390f35b61040860048036038101906104039190612223565b610c04565b604051610415919061267f565b60405180910390f35b61043860048036038101906104339190612181565b610c22565b005b610454600480360381019061044f91906120ee565b610d64565b6040516104619190612a70565b60405180910390f35b610484600480360381019061047f91906120c1565b610deb565b005b60606003805461049590612c1a565b80601f01602080910402602001604051908101604052809291908181526020018280546104c190612c1a565b801561050e5780601f106104e35761010080835404028352916020019161050e565b820191906000526020600020905b8154815290600101906020018083116104f157829003601f168201915b5050505050905090565b600061052c610525610fb0565b8484610fb8565b6001905092915050565b6000600254905090565b600061054d848484611183565b6000600160008673ffffffffffffffffffffffffffffffffffffffff1673ffffffffffffffffffffffffffffffffffffffff1681526020019081526020016000206000610598610fb0565b73ffffffffffffffffffffffffffffffffffffffff1673ffffffffffffffffffffffffffffffffffffffff16815260200190815260200160002054905082811015610618576040517f08c379a000000000000000000000000000000000000000000000000000000000815260040161060f90612950565b60405180910390fd5b61062c85610624610fb0565b858403610fb8565b60019150509392505050565b60006012905090565b600061064b611404565b905090565b60006106f261065d610fb0565b84846001600061066b610fb0565b73ffffffffffffffffffffffffffffffffffffffff1673ffffffffffffffffffffffffffffffffffffffff16815260200190815260200160002060008873ffffffffffffffffffffffffffffffffffffffff1673ffffffffffffffffffffffffffffffffffffffff168152602001908152602001600020546106ed9190612acd565b610fb8565b6001905092915050565b610704610fb0565b73ffffffffffffffffffffffffffffffffffffffff166107226109a5565b73ffffffffffffffffffffffffffffffffffffffff1614610778576040517f08c379a000000000000000000000000000000000000000000000000000000000815260040161076f90612970565b60405180910390fd5b61078282826114c7565b5050565b610797610791610fb0565b82611627565b50565b60008060006107e784600560008873ffffffffffffffffffffffffffffffffffffffff1673ffffffffffffffffffffffffffffffffffffffff1681526020019081526020016000206117fe565b91509150816107fe576107f98561080a565b610800565b805b9250505092915050565b60008060008373ffffffffffffffffffffffffffffffffffffffff1673ffffffffffffffffffffffffffffffffffffffff168152602001908152602001600020549050919050565b61085a610fb0565b73ffffffffffffffffffffffffffffffffffffffff166108786109a5565b73ffffffffffffffffffffffffffffffffffffffff16146108ce576040517f08c379a00000000000000000000000000000000000000000000000000000000081526004016108c590612970565b60405180910390fd5b6108d860006118f4565b565b60006108ed836108e8610fb0565b610d64565b905081811015610932576040517f08c379a000000000000000000000000000000000000000000000000000000000815260040161092990612990565b60405180910390fd5b6109468361093e610fb0565b848403610fb8565b6109508383611627565b505050565b600061099e600a60008473ffffffffffffffffffffffffffffffffffffffff1673ffffffffffffffffffffffffffffffffffffffff168152602001908152602001600020610fa2565b9050919050565b6000600960009054906101000a900473ffffffffffffffffffffffffffffffffffffffff16905090565b6060600480546109de90612c1a565b80601f0160208091040260200160405190810160405280929190818152602001828054610a0a90612c1a565b8015610a575780601f10610a2c57610100808354040283529160200191610a57565b820191906000526020600020905b815481529060010190602001808311610a3a57829003601f168201915b5050505050905090565b610a69610fb0565b73ffffffffffffffffffffffffffffffffffffffff16610a876109a5565b73ffffffffffffffffffffffffffffffffffffffff1614610add576040517f08c379a0000000000000000000000000000000000000000000000000000000008152600401610ad490612970565b60405180910390fd5b610ae56119ba565b50565b6000806000610af88460066117fe565b9150915081610b0e57610b09610536565b610b10565b805b92505050919050565b60008060016000610b28610fb0565b73ffffffffffffffffffffffffffffffffffffffff1673ffffffffffffffffffffffffffffffffffffffff16815260200190815260200160002060008573ffffffffffffffffffffffffffffffffffffffff1673ffffffffffffffffffffffffffffffffffffffff16815260200190815260200160002054905082811015610be5576040517f08c379a0000000000000000000000000000000000000000000000000000000008152600401610bdc90612a30565b60405180910390fd5b610bf9610bf0610fb0565b85858403610fb8565b600191505092915050565b6000610c18610c11610fb0565b8484611183565b6001905092915050565b83421115610c65576040517f08c379a0000000000000000000000000000000000000000000000000000000008152600401610c5c906128b0565b60405180910390fd5b60007f0000000000000000000000000000000000000000000000000000000000000000888888610c948c611a10565b89604051602001610caa969594939291906126b5565b6040516020818303038152906040528051906020012090506000610ccd82611a6e565b90506000610cdd82878787611a88565b90508973ffffffffffffffffffffffffffffffffffffffff168173ffffffffffffffffffffffffffffffffffffffff1614610d4d576040517f08c379a0000000000000000000000000000000000000000000000000000000008152600401610d4490612930565b60405180910390fd5b610d588a8a8a610fb8565b50505050505050505050565b6000600160008473ffffffffffffffffffffffffffffffffffffffff1673ffffffffffffffffffffffffffffffffffffffff16815260200190815260200160002060008373ffffffffffffffffffffffffffffffffffffffff1673ffffffffffffffffffffffffffffffffffffffff16815260200190815260200160002054905092915050565b610df3610fb0565b73ffffffffffffffffffffffffffffffffffffffff16610e116109a5565b73ffffffffffffffffffffffffffffffffffffffff1614610e67576040517f08c379a0000000000000000000000000000000000000000000000000000000008152600401610e5e90612970565b60405180910390fd5b600073ffffffffffffffffffffffffffffffffffffffff168173ffffffffffffffffffffffffffffffffffffffff161415610ed7576040517f08c379a0000000000000000000000000000000000000000000000000000000008152600401610ece90612870565b60405180910390fd5b610ee0816118f4565b50565b610eee838383610f9d565b600073ffffffffffffffffffffffffffffffffffffffff168373ffffffffffffffffffffffffffffffffffffffff161415610f3957610f2c82611ab3565b610f34611b06565b610f98565b600073ffffffffffffffffffffffffffffffffffffffff168273ffffffffffffffffffffffffffffffffffffffff161415610f8457610f7783611ab3565b610f7f611b06565b610f97565b610f8d83611ab3565b610f9682611ab3565b5b5b505050565b505050565b600081600001549050919050565b600033905090565b600073ffffffffffffffffffffffffffffffffffffffff168373ffffffffffffffffffffffffffffffffffffffff161415611028576040517f08c379a000000000000000000000000000000000000000000000000000000000815260040161101f906129f0565b60405180910390fd5b600073ffffffffffffffffffffffffffffffffffffffff168273ffffffffffffffffffffffffffffffffffffffff161415611098576040517f08c379a000000000000000000000000000000000000000000000000000000000815260040161108f90612890565b60405180910390fd5b80600160008573ffffffffffffffffffffffffffffffffffffffff1673ffffffffffffffffffffffffffffffffffffffff16815260200190815260200160002060008473ffffffffffffffffffffffffffffffffffffffff1673ffffffffffffffffffffffffffffffffffffffff168152602001908152602001600020819055508173ffffffffffffffffffffffffffffffffffffffff168373ffffffffffffffffffffffffffffffffffffffff167f8c5be1e5ebec7d5bd14f71427d1e84f3dd0314c0f7b2291e5b200ac8c7c3b925836040516111769190612a70565b60405180910390a3505050565b600073ffffffffffffffffffffffffffffffffffffffff168373ffffffffffffffffffffffffffffffffffffffff1614156111f3576040517f08c379a00000000000000000000000000000000000000000000000000000000081526004016111ea906129d0565b60405180910390fd5b600073ffffffffffffffffffffffffffffffffffffffff168273ffffffffffffffffffffffffffffffffffffffff161415611263576040517f08c379a000000000000000000000000000000000000000000000000000000000815260040161125a90612810565b60405180910390fd5b61126e838383611b1a565b60008060008573ffffffffffffffffffffffffffffffffffffffff1673ffffffffffffffffffffffffffffffffffffffff168152602001908152602001600020549050818110156112f4576040517f08c379a00000000000000000000000000000000000000000000000000000000081526004016112eb906128d0565b60405180910390fd5b8181036000808673ffffffffffffffffffffffffffffffffffffffff1673ffffffffffffffffffffffffffffffffffffffff16815260200190815260200160002081905550816000808573ffffffffffffffffffffffffffffffffffffffff1673ffffffffffffffffffffffffffffffffffffffff16815260200190815260200160002060008282546113879190612acd565b925050819055508273ffffffffffffffffffffffffffffffffffffffff168473ffffffffffffffffffffffffffffffffffffffff167fddf252ad1be2c89b69c2b068fc378daa952ba7f163c4a11628f55a4df523b3ef846040516113eb9190612a70565b60405180910390a36113fe848484611b2a565b50505050565b60007f0000000000000000000000000000000000000000000000000000000000000000461415611456577f000000000000000000000000000000000000000000000000000000000000000090506114c4565b6114c17f00000000000000000000000000000000000000000000000000000000000000007f00000000000000000000000000000000000000000000000000000000000000007f0000000000000000000000000000000000000000000000000000000000000000611b2f565b90505b90565b600073ffffffffffffffffffffffffffffffffffffffff168273ffffffffffffffffffffffffffffffffffffffff161415611537576040517f08c379a000000000000000000000000000000000000000000000000000000000815260040161152e90612a50565b60405180910390fd5b61154360008383611b1a565b80600260008282546115559190612acd565b92505081905550806000808473ffffffffffffffffffffffffffffffffffffffff1673ffffffffffffffffffffffffffffffffffffffff16815260200190815260200160002060008282546115aa9190612acd565b925050819055508173ffffffffffffffffffffffffffffffffffffffff16600073ffffffffffffffffffffffffffffffffffffffff167fddf252ad1be2c89b69c2b068fc378daa952ba7f163c4a11628f55a4df523b3ef8360405161160f9190612a70565b60405180910390a361162360008383611b2a565b5050565b600073ffffffffffffffffffffffffffffffffffffffff168273ffffffffffffffffffffffffffffffffffffffff161415611697576040517f08c379a000000000000000000000000000000000000000000000000000000000815260040161168e906129b0565b60405180910390fd5b6116a382600083611b1a565b60008060008473ffffffffffffffffffffffffffffffffffffffff1673ffffffffffffffffffffffffffffffffffffffff16815260200190815260200160002054905081811015611729576040517f08c379a000000000000000000000000000000000000000000000000000000000815260040161172090612830565b60405180910390fd5b8181036000808573ffffffffffffffffffffffffffffffffffffffff1673ffffffffffffffffffffffffffffffffffffffff1681526020019081526020016000208190555081600260008282546117809190612b54565b92505081905550600073ffffffffffffffffffffffffffffffffffffffff168373ffffffffffffffffffffffffffffffffffffffff167fddf252ad1be2c89b69c2b068fc378daa952ba7f163c4a11628f55a4df523b3ef846040516117e59190612a70565b60405180910390a36117f983600084611b2a565b505050565b60008060008411611844576040517f08c379a000000000000000000000000000000000000000000000000000000000815260040161183b90612a10565b60405180910390fd5b61184c611b69565b84111561188e576040517f08c379a0000000000000000000000000000000000000000000000000000000008152600401611885906127f0565b60405180910390fd5b60006118a68585600001611b7a90919063ffffffff16565b905083600001805490508114156118c45760008092509250506118ed565b60018460010182815481106118dc576118db612d12565b5b906000526020600020015492509250505b9250929050565b6000600960009054906101000a900473ffffffffffffffffffffffffffffffffffffffff16905081600960006101000a81548173ffffffffffffffffffffffffffffffffffffffff021916908373ffffffffffffffffffffffffffffffffffffffff1602179055508173ffffffffffffffffffffffffffffffffffffffff168173ffffffffffffffffffffffffffffffffffffffff167f8be0079c531659141344cd1fd0a4f28419497f9722a3daafe3b4186f6b6457e060405160405180910390a35050565b60006119c66008611c54565b60006119d0611b69565b90507f8030e83b04d87bef53480e26263266d6ca66863aa8506aca6f2559d18aa1cb6781604051611a019190612a70565b60405180910390a18091505090565b600080600a60008473ffffffffffffffffffffffffffffffffffffffff1673ffffffffffffffffffffffffffffffffffffffff1681526020019081526020016000209050611a5d81610fa2565b9150611a6881611c54565b50919050565b6000611a81611a7b611404565b83611c6a565b9050919050565b6000806000611a9987878787611c9d565b91509150611aa681611daa565b8192505050949350505050565b611b03600560008373ffffffffffffffffffffffffffffffffffffffff1673ffffffffffffffffffffffffffffffffffffffff168152602001908152602001600020611afe8361080a565b611f7f565b50565b611b186006611b13610536565b611f7f565b565b611b25838383610ee3565b505050565b505050565b60008383834630604051602001611b4a959493929190612716565b6040516020818303038152906040528051906020012090509392505050565b6000611b756008610fa2565b905090565b60008083805490501415611b915760009050611c4e565b600080848054905090505b80821015611bf5576000611bb08383611ffa565b905084868281548110611bc657611bc5612d12565b5b90600052602060002001541115611bdf57809150611bef565b600181611bec9190612acd565b92505b50611b9c565b600082118015611c2d57508385600184611c0f9190612b54565b81548110611c2057611c1f612d12565b5b9060005260206000200154145b15611c4857600182611c3f9190612b54565b92505050611c4e565b81925050505b92915050565b6001816000016000828254019250508190555050565b60008282604051602001611c7f92919061262d565b60405160208183030381529060405280519060200120905092915050565b6000807f7fffffffffffffffffffffffffffffff5d576e7357a4501ddfe92f46681b20a08360001c1115611cd8576000600391509150611da1565b601b8560ff1614158015611cf05750601c8560ff1614155b15611d02576000600491509150611da1565b600060018787878760405160008152602001604052604051611d279493929190612769565b6020604051602081039080840390855afa158015611d49573d6000803e3d6000fd5b505050602060405103519050600073ffffffffffffffffffffffffffffffffffffffff168173ffffffffffffffffffffffffffffffffffffffff161415611d9857600060019250925050611da1565b80600092509250505b94509492505050565b60006004811115611dbe57611dbd612cb4565b5b816004811115611dd157611dd0612cb4565b5b1415611ddc57611f7c565b60016004811115611df057611def612cb4565b5b816004811115611e0357611e02612cb4565b5b1415611e44576040517f08c379a0000000000000000000000000000000000000000000000000000000008152600401611e3b906127d0565b60405180910390fd5b60026004811115611e5857611e57612cb4565b5b816004811115611e6b57611e6a612cb4565b5b1415611eac576040517f08c379a0000000000000000000000000000000000000000000000000000000008152600401611ea390612850565b60405180910390fd5b60036004811115611ec057611ebf612cb4565b5b816004811115611ed357611ed2612cb4565b5b1415611f14576040517f08c379a0000000000000000000000000000000000000000000000000000000008152600401611f0b906128f0565b60405180910390fd5b600480811115611f2757611f26612cb4565b5b816004811115611f3a57611f39612cb4565b5b1415611f7b576040517f08c379a0000000000000000000000000000000000000000000000000000000008152600401611f7290612910565b60405180910390fd5b5b50565b6000611f89611b69565b905080611f9884600001612020565b1015611ff55782600001819080600181540180825580915050600190039060005260206000200160009091909190915055826001018290806001815401808255809150506001900390600052602060002001600090919091909150555b505050565b6000600282841861200b9190612b23565b8284166120189190612acd565b905092915050565b600080828054905014156120375760009050612068565b81600183805490506120499190612b54565b8154811061205a57612059612d12565b5b906000526020600020015490505b919050565b60008135905061207c816132cb565b92915050565b600081359050612091816132e2565b92915050565b6000813590506120a6816132f9565b92915050565b6000813590506120bb81613310565b92915050565b6000602082840312156120d7576120d6612d41565b5b60006120e58482850161206d565b91505092915050565b6000806040838503121561210557612104612d41565b5b60006121138582860161206d565b92505060206121248582860161206d565b9150509250929050565b60008060006060848603121561214757612146612d41565b5b60006121558682870161206d565b93505060206121668682870161206d565b925050604061217786828701612097565b9150509250925092565b600080600080600080600060e0888a0312156121a05761219f612d41565b5b60006121ae8a828b0161206d565b97505060206121bf8a828b0161206d565b96505060406121d08a828b01612097565b95505060606121e18a828b01612097565b94505060806121f28a828b016120ac565b93505060a06122038a828b01612082565b92505060c06122148a828b01612082565b91505092959891949750929550565b6000806040838503121561223a57612239612d41565b5b60006122488582860161206d565b925050602061225985828601612097565b9150509250929050565b60006020828403121561227957612278612d41565b5b600061228784828501612097565b91505092915050565b61229981612b88565b82525050565b6122a881612b9a565b82525050565b6122b781612ba6565b82525050565b6122ce6122c982612ba6565b612c4c565b82525050565b60006122df82612aa6565b6122e98185612ab1565b93506122f9818560208601612be7565b61230281612d46565b840191505092915050565b600061231a601883612ab1565b915061232582612d57565b602082019050919050565b600061233d601d83612ab1565b915061234882612d80565b602082019050919050565b6000612360602383612ab1565b915061236b82612da9565b604082019050919050565b6000612383602283612ab1565b915061238e82612df8565b604082019050919050565b60006123a6601f83612ab1565b91506123b182612e47565b602082019050919050565b60006123c9602683612ab1565b91506123d482612e70565b604082019050919050565b60006123ec602283612ab1565b91506123f782612ebf565b604082019050919050565b600061240f600283612ac2565b915061241a82612f0e565b600282019050919050565b6000612432601d83612ab1565b915061243d82612f37565b602082019050919050565b6000612455602683612ab1565b915061246082612f60565b604082019050919050565b6000612478602283612ab1565b915061248382612faf565b604082019050919050565b600061249b602283612ab1565b91506124a682612ffe565b604082019050919050565b60006124be601e83612ab1565b91506124c98261304d565b602082019050919050565b60006124e1602883612ab1565b91506124ec82613076565b604082019050919050565b6000612504602083612ab1565b915061250f826130c5565b602082019050919050565b6000612527602483612ab1565b9150612532826130ee565b604082019050919050565b600061254a602183612ab1565b91506125558261313d565b604082019050919050565b600061256d602583612ab1565b91506125788261318c565b604082019050919050565b6000612590602483612ab1565b915061259b826131db565b604082019050919050565b60006125b3601683612ab1565b91506125be8261322a565b602082019050919050565b60006125d6602583612ab1565b91506125e182613253565b604082019050919050565b60006125f9601f83612ab1565b9150612604826132a2565b602082019050919050565b61261881612bd0565b82525050565b61262781612bda565b82525050565b600061263882612402565b915061264482856122bd565b60208201915061265482846122bd565b6020820191508190509392505050565b60006020820190506126796000830184612290565b92915050565b6000602082019050612694600083018461229f565b92915050565b60006020820190506126af60008301846122ae565b92915050565b600060c0820190506126ca60008301896122ae565b6126d76020830188612290565b6126e46040830187612290565b6126f1606083018661260f565b6126fe608083018561260f565b61270b60a083018461260f565b979650505050505050565b600060a08201905061272b60008301886122ae565b61273860208301876122ae565b61274560408301866122ae565b612752606083018561260f565b61275f6080830184612290565b9695505050505050565b600060808201905061277e60008301876122ae565b61278b602083018661261e565b61279860408301856122ae565b6127a560608301846122ae565b95945050505050565b600060208201905081810360008301526127c881846122d4565b905092915050565b600060208201905081810360008301526127e98161230d565b9050919050565b6000602082019050818103600083015261280981612330565b9050919050565b6000602082019050818103600083015261282981612353565b9050919050565b6000602082019050818103600083015261284981612376565b9050919050565b6000602082019050818103600083015261286981612399565b9050919050565b60006020820190508181036000830152612889816123bc565b9050919050565b600060208201905081810360008301526128a9816123df565b9050919050565b600060208201905081810360008301526128c981612425565b9050919050565b600060208201905081810360008301526128e981612448565b9050919050565b600060208201905081810360008301526129098161246b565b9050919050565b600060208201905081810360008301526129298161248e565b9050919050565b60006020820190508181036000830152612949816124b1565b9050919050565b60006020820190508181036000830152612969816124d4565b9050919050565b60006020820190508181036000830152612989816124f7565b9050919050565b600060208201905081810360008301526129a98161251a565b9050919050565b600060208201905081810360008301526129c98161253d565b9050919050565b600060208201905081810360008301526129e981612560565b9050919050565b60006020820190508181036000830152612a0981612583565b9050919050565b60006020820190508181036000830152612a29816125a6565b9050919050565b60006020820190508181036000830152612a49816125c9565b9050919050565b60006020820190508181036000830152612a69816125ec565b9050919050565b6000602082019050612a85600083018461260f565b92915050565b6000602082019050612aa0600083018461261e565b92915050565b600081519050919050565b600082825260208201905092915050565b600081905092915050565b6000612ad882612bd0565b9150612ae383612bd0565b9250827fffffffffffffffffffffffffffffffffffffffffffffffffffffffffffffffff03821115612b1857612b17612c56565b5b828201905092915050565b6000612b2e82612bd0565b9150612b3983612bd0565b925082612b4957612b48612c85565b5b828204905092915050565b6000612b5f82612bd0565b9150612b6a83612bd0565b925082821015612b7d57612b7c612c56565b5b828203905092915050565b6000612b9382612bb0565b9050919050565b60008115159050919050565b6000819050919050565b600073ffffffffffffffffffffffffffffffffffffffff82169050919050565b6000819050919050565b600060ff82169050919050565b60005b83811015612c05578082015181840152602081019050612bea565b83811115612c14576000848401525b50505050565b60006002820490506001821680612c3257607f821691505b60208210811415612c4657612c45612ce3565b5b50919050565b6000819050919050565b7f4e487b7100000000000000000000000000000000000000000000000000000000600052601160045260246000fd5b7f4e487b7100000000000000000000000000000000000000000000000000000000600052601260045260246000fd5b7f4e487b7100000000000000000000000000000000000000000000000000000000600052602160045260246000fd5b7f4e487b7100000000000000000000000000000000000000000000000000000000600052602260045260246000fd5b7f4e487b7100000000000000000000000000000000000000000000000000000000600052603260045260246000fd5b600080fd5b6000601f19601f8301169050919050565b7f45434453413a20696e76616c6964207369676e61747572650000000000000000600082015250565b7f4552433230536e617073686f743a206e6f6e6578697374656e74206964000000600082015250565b7f45524332303a207472616e7366657220746f20746865207a65726f206164647260008201527f6573730000000000000000000000000000000000000000000000000000000000602082015250565b7f45524332303a206275726e20616d6f756e7420657863656564732062616c616e60008201527f6365000000000000000000000000000000000000000000000000000000000000602082015250565b7f45434453413a20696e76616c6964207369676e6174757265206c656e67746800600082015250565b7f4f776e61626c653a206e6577206f776e657220697320746865207a65726f206160008201527f6464726573730000000000000000000000000000000000000000000000000000602082015250565b7f45524332303a20617070726f766520746f20746865207a65726f20616464726560008201527f7373000000000000000000000000000000000000000000000000000000000000602082015250565b7f1901000000000000000000000000000000000000000000000000000000000000600082015250565b7f45524332305065726d69743a206578706972656420646561646c696e65000000600082015250565b7f45524332303a207472616e7366657220616d6f756e742065786365656473206260008201527f616c616e63650000000000000000000000000000000000000000000000000000602082015250565b7f45434453413a20696e76616c6964207369676e6174757265202773272076616c60008201527f7565000000000000000000000000000000000000000000000000000000000000602082015250565b7f45434453413a20696e76616c6964207369676e6174757265202776272076616c60008201527f7565000000000000000000000000000000000000000000000000000000000000602082015250565b7f45524332305065726d69743a20696e76616c6964207369676e61747572650000600082015250565b7f45524332303a207472616e7366657220616d6f756e742065786365656473206160008201527f6c6c6f77616e6365000000000000000000000000000000000000000000000000602082015250565b7f4f776e61626c653a2063616c6c6572206973206e6f7420746865206f776e6572600082015250565b7f45524332303a206275726e20616d6f756e74206578636565647320616c6c6f7760008201527f616e636500000000000000000000000000000000000000000000000000000000602082015250565b7f45524332303a206275726e2066726f6d20746865207a65726f2061646472657360008201527f7300000000000000000000000000000000000000000000000000000000000000602082015250565b7f45524332303a207472616e736665722066726f6d20746865207a65726f20616460008201527f6472657373000000000000000000000000000000000000000000000000000000602082015250565b7f45524332303a20617070726f76652066726f6d20746865207a65726f2061646460008201527f7265737300000000000000000000000000000000000000000000000000000000602082015250565b7f4552433230536e617073686f743a206964206973203000000000000000000000600082015250565b7f45524332303a2064656372656173656420616c6c6f77616e63652062656c6f7760008201527f207a65726f000000000000000000000000000000000000000000000000000000602082015250565b7f45524332303a206d696e7420746f20746865207a65726f206164647265737300600082015250565b6132d481612b88565b81146132df57600080fd5b50565b6132eb81612ba6565b81146132f657600080fd5b50565b61330281612bd0565b811461330d57600080fd5b50565b61331981612bda565b811461332457600080fd5b5056fea2646970667358221220281178af6f00a6da3c49602b781ddd4bf1612fdcca839adf8bf97fc4e78e439364736f6c63430008060033",
  "linkReferences": {},
  "deployedLinkReferences": {}
}